:100000000C942A000C9447000C9447000C94470071
:100010000C9447000C9447000C9447000C94470044
:100020000C9447000C9447000C9447000C94A201D8
:100030000C9447000C9447000C9447000C94470024
:100040000C9447000C9447000C9447000C94470014
:100050000C94470011241FBECFE5D8E0DEBFCDBF12
:1000600010E0A0E6B0E0E0E6F5E002C005900D92F9
:10007000A236B107D9F721E0A2E6B0E001C01D9297
:10008000A935B207E1F70E948D000C94AE020C94E2
:100090000000809165008F5F809365008F3149F487
:1000A0008091600082BF1092650060E080E00E9455
:1000B00055010895809164008F5F809364008F31B3
:1000C00049F48091600082BF1092640061E080E09A
:1000D0000E9455010895809163008F5F80936300B3
:1000E0008F3149F48091600082BF1092630062E01A
:1000F00080E00E9455010895809162008F5F809397
:1001000062008F3149F48091600082BF10926200DA
:1001100063E080E00E945501089520E030E041E076
:1001200050E060E089E490E00E94730220E030E05B
:1001300042E050E061E08AE590E00E94730220E036
:1001400030E044E050E062E08BE690E00E94730211
:1001500020E030E04AE050E063E08CE790E00E946D
:1001600073026FEF80E00E94450141E060E080E0B3
:100170000E94D50041E061E080E00E94D50041E0AE
:1001800062E080E00E94D50041E063E080E00E94F0
:10019000D5008BE70E9494010E948D010E94980176
:1001A0000E9489010E94A902FFCF4130A1F5813050
:1001B00089F028F08230C9F0833011F108952BB313
:1001C00081E090E002C0880F991F6A95E2F7822BC8
:1001D0008BBB089528B381E090E002C0880F991F7F
:1001E0006A95E2F7822B88BB089525B381E090E001
:1001F00002C0880F991F6A95E2F7822B85BB08958C
:1002000022B381E090E002C0880F991F6A95E2F75F
:10021000822B82BB0895411137C0813091F028F0C4
:100220008230D9F0833029F108952BB381E090E03A
:1002300002C0880F991F6A95E2F7809582238BBBD5
:10024000089528B381E090E002C0880F991F6A9555
:10025000E2F78095822388BB089525B381E090E082
:1002600002C0880F991F6A95E2F78095822385BBAB
:10027000089522B381E090E002C0880F991F6A952B
:10028000E2F78095822382BB0895813041F028F007
:10029000823039F0833039F008956ABB089567BB26
:1002A000089564BB089561BB0895813089F028F0FA
:1002B0008230C9F0833011F108952BB381E090E0D2
:1002C00002C0880F991F6A95E2F782278BBB0895B9
:1002D00028B381E090E002C0880F991F6A95E2F789
:1002E000822788BB089525B381E090E002C0880F83
:1002F000991F6A95E2F7822785BB089522B381E0B2
:1003000090E002C0880F991F6A95E2F7822782BBAE
:1003100008958FB780688FBF089583B7807B83BFB0
:1003200089B7816089BF089582BF8093560108957F
:1003300083B7887F856083BF089590935801809329
:10034000570108951F920F920FB60F9211242F9309
:100350003F934F935F936F937F938F939F93AF934D
:10036000BF93EF93FF93E0915701F09158010995E6
:10037000FF91EF91BF91AF919F918F917F916F917D
:100380005F914F913F912F910F900FBE0F901F9053
:1003900018951F93CF93DF9310E09EC0C12FD0E03C
:1003A000FE01EE0FFF1FEC0FFD1FEE0FFF1FEE0F04
:1003B000FF1FEA59FF4F0190F081E02D309709F4BB
:1003C0008AC0DE01AA0FBB1FAC0FBD1FAA0FBB1F47
:1003D000AA0FBB1FAA59BF4F19968C91811136C025
:1003E000DE01AA0FBB1FAC0FBD1FAA0FBB1FAA0FB8
:1003F000BB1FAA59BF4F17962D913C9118972115F5
:100400003105A1F40995CE01880F991FFC01EC0F6D
:10041000FD1FEE0FFF1FEE0FFF1FEA59FF4F22E0F7
:100420002187238134813087278355C0CE01880FEF
:10043000991FC80FD91FCC0FDD1FCC0FDD1FCA5964
:10044000DF4F2150310938872F8345C0823011F5A5
:10045000FE01EE0FFF1FEC0FFD1FEE0FFF1FEE0F53
:10046000FF1FEA59FF4F278130852115310511F40F
:10047000118631C0CE01880F991FC80FD91FCC0F2C
:10048000DD1FCC0FDD1FCA59DF4F215031093887DE
:100490002F8321C08130F9F4FE01EE0FFF1FEC0F16
:1004A000FD1FEE0FFF1FEE0FFF1FEA59FF4F828562
:1004B0009385009711F411860EC09E01220F331F01
:1004C000C20FD31FCC0FDD1FCC0FDD1FCA59DF4F6A
:1004D00001979B878A871F5F143108F45FCFDF91F4
:1004E000CF911F910895653180F570E0FB01EE0F0B
:1004F000FF1FE60FF71FEE0FFF1FEE0FFF1FEA595A
:10050000FF4F0190F081E02DEF2B09F5FB01EE0F7D
:10051000FF1FDF01A60FB71FAA0FBB1FAA0FBB1F2C
:10052000AA59BF4F11969C938E9314965C934E9349
:10053000139716963C932E93159718963C932E93EB
:100540001797FD01118680E0089582E0089581E00B
:10055000089589EC91E00E949D010895F894FFCFE1
:020560007B001E
:00000001FF
