:100000000C942A000C9447000C9447000C94470071
:100010000C9447000C9447000C9447000C940C057A
:100020000C9447000C9447000C9447000C94470034
:100030000C9447000C9447000C9447000C94470024
:100040000C9447000C9447000C9447000C94470014
:100050000C94470011241FBECFE5D8E0DEBFCDBF12
:1000600010E0A0E6B0E0ECE9FAE102C005900D92E4
:10007000A23CB107D9F727E0A2ECB0E001C01D9285
:10008000AD30B207E1F70E9458030C944C0D0C946C
:100090000000CF93C82F40E061E080E00E9437016C
:1000A00040E061E081E00E9437016C2F80E00E9417
:1000B0005D0141E061E082E00E9437018FE99FE04D
:1000C0000197F1F700C0000040E061E082E00E948B
:1000D0003701CF9108952FEF89EF90E021508040B4
:1000E0009040E1F700C0000088E30E9449008CE0E6
:1000F0000E94490081E00E9449000895CF93C82FD3
:1001000041E061E080E00E94370140E061E081E091
:100110000E9437016C2F80E00E945D0141E061E0A8
:1001200082E00E9437018FE99FE00197F1F700C05C
:10013000000040E061E082E00E943701CF91089525
:100140000F931F93CF938C01C0E003C00E947E00E9
:10015000CF5FF801EC0FF11D80818111F7CFCF91B6
:100160001F910F91089590E4899F600D1124862FAF
:1001700080580E9449000895CF93C82F40E061E065
:1001800083E00E94370140E061E084E00E94370193
:100190006C2F82E00E945D0141E061E085E00E94F9
:1001A00037018FE99FE00197F1F700C0000040E0C0
:1001B00061E085E00E943701CF9108952FEF89EF2C
:1001C00090E0215080409040E1F700C0000088E3BB
:1001D0000E94BC008CE00E94BC0081E00E94BC0038
:1001E0000895CF93C82F41E061E083E00E9437017A
:1001F00040E061E084E00E9437016C2F82E00E94C1
:100200005D0141E061E085E00E9437018FE99FE0F8
:100210000197F1F700C0000040E061E085E00E9436
:100220003701CF9108950F931F93CF938C01C0E0B6
:1002300003C00E94F100CF5FF801EC0FF11D808137
:100240008111F7CFCF911F910F91089590E4899F6D
:10025000600D1124862F80580E94BC00089581E013
:100260000E944900089581E00E94BC0008958830F2
:1002700000F5643000F5E62FF0E0EE0FFF1FED59BA
:10028000FF4F0190F081E02D908121E030E0082EB9
:1002900002C0220F331F0A94E2F750E002C0440F5D
:1002A000551F8A95E2F720952923422B408381E050
:1002B000089580E0089580E00895843060F4E82F88
:1002C000F0E0EE0FFF1FED59FF4F0190F081E02DA0
:1002D000608381E0089580E00895A7ECB0E0EBEC46
:1002E000F0E01196FC93EE9313961C921E921297D7
:1002F000A3ECB0E08BED95E013969C938E93129750
:1003000011961C921E9293838283B183A0830895D9
:10031000EF92FF920F931F93CF93DF93EC010E9414
:10032000B5098091C200811105C00E946D0181E074
:100330008093C200209741F0CB3F8FEFD80710F495
:10034000259602C0C0E0D0E0DD230CF466C0209703
:1003500009F466C020916000309161002C173D07C0
:1003600008F461C0E091C700F091C800A7ECB0E0CC
:1003700002C0DF01FC01828193818C179D0720F46C
:10038000808191810097A9F780E0E33CF80709F4A8
:100390004DC00D911C9111970C5F1F4F8081918171
:1003A0008D939C93828193818C1B9D0B8930910549
:1003B00030F1BF016C0F7D1FDB0113969C938E9370
:1003C0001297D383C28312964D915C9113970F2E8F
:1003D000F7ECEF2EF0E0FF2EF02D01C07D01E701DC
:1003E000A881B98112968D919C91139784179507D6
:1003F000A8F3EB01B983A883D7016D937C93828125
:100400009381281B390B3093610020936000906822
:1004100093838283118210820BC000E010E008C039
:1004200000E010E005C000E010E002C000E010E0D5
:100430000E94D50AC801DF91CF911F910F91FF90C3
:10044000EF900895EF92FF920F931F93CF93DF9356
:100450000097B9F1EC0124972A813B8133238CF575
:1004600048815981452B69F58C013F773B832A836D
:100470000E94B5092A813B8147EC50E001C0AF01E1
:10048000DA01ED91FC918281938182179307B8F391
:10049000C8010497DC011196FC93EE93FA01D18315
:1004A000C08312968D919C9113972091600030919A
:1004B0006100820F931F90936100809360000E94FF
:1004C000D50ADF91CF911F910F91FF90EF90089582
:1004D000FC010396928381832FEF3FEF34832383C4
:1004E000968385839087878310820895FC01118607
:1004F00010860895CF93DF93EB01488159814F3FD8
:100500002FEF520721F4FC01A781B0850DC0DC015B
:10051000139601C0DF011296ED91FC911397208193
:10052000318142175307B0F71296ED91FC91139762
:10053000FB83EA83D583C483BD83AC831396DC93AA
:10054000CE93129799878887FC0120812F5F2083A3
:10055000DF91CF910895CF93DF93FC01A085B18502
:10056000C281D381848195819D838C83C481D5810F
:10057000828193819B838A8311968D919C9112979E
:10058000E817F90731F48481958112969C938E9334
:100590001197118610868C9181508C938C91DF91EC
:1005A000CF91089584EF91E00E94AA0B64E670E079
:1005B0008091AB069091AC060E94F806813079F4E8
:1005C0000E9433018BE690E00E9413012FEF89E631
:1005D00098E1215080409040E1F700C0000064E6BF
:1005E00070E08091AD069091AE060E94F8068130D1
:1005F000E9F60E942F0189E790E00E94A0002FEF0A
:1006000083ED90E3215080409040E1F700C000006E
:1006100020E040E050E060E070E08091AD06909115
:10062000AE060E94660620E040E050E060E070E028
:100630008091AB069091AC060E9466060E94280D40
:10064000B5CF0E94240D0E94280D64E670E08091D1
:10065000AD069091AE060E94F806813079F40E94B2
:100660002F018EE890E00E94A0002FEF89E698E12C
:10067000215080409040E1F700C0000064E670E047
:100680008091AB069091AC060E94F8068130E9F6A5
:100690000E9433018CE990E00E9413012FEF83ED5B
:1006A00090E3215080409040E1F700C00000CDCFA2
:1006B0000E940F050E946B0060E081E00E94B30081
:1006C0000E94DE0060E081E00E94260143E060E0DD
:1006D00081E00E9425069093AE068093AD0643E02C
:1006E00060E081E00E9425069093AC068093AB0603
:1006F00020E040E050E060E070E08091AD06909135
:10070000AE060E94660620E040E050E060E070E047
:100710008091AB069091AC060E9466060F2EF9EA16
:10072000EF2EF6E0FF2EF02D01E020E030E044E671
:1007300050E061EB70E082ED92E00E9430090F2EF4
:10074000F7EAEF2EF6E0FF2EF02D00E020E030E09B
:1007500044E650E067EB70E081E293E00E943009EC
:100760000E948909FFCF1BBC8CE78ABD8BE08EBD40
:1007700089B7806189BF089531E1FC0130833197E9
:1007800022E220833197A3E3A083319760833197DE
:10079000708331971082319760E8608331971082BF
:1007A000319762E06083319763E06083319764E062
:1007B0006083319765E06083319766E060833197AD
:1007C00067E06083319768E06083319769E0608318
:1007D000319760E1608331973083319732E1308324
:1007E000319733E13083319734E13083319735E10C
:1007F0003083319736E13083319737E13083319759
:1008000038E13083319739E13083319730E23083FA
:10081000319731E2308331972083319723E220836F
:100820003197408331975083319726E22083319767
:1008300027E22083319728E22083319729E2208321
:10084000319720E32083319721E320838697089511
:100850000E94B303A0910B07B0910C07CD91CDBFBF
:10086000DD91DEBFFF91EF91DF91CF91BF91AF910D
:100870009F918F917F916F915F914F913F912F91B8
:100880001F910F91FF90EF90DF90CF90BF90AF90AE
:100890009F908F907F906F905F904F903F902F90A0
:1008A0001F900F900FBE0F90089581E008950F9252
:1008B0000FB6F8940F921F9211242F923F924F92ED
:1008C0005F926F927F928F929F92AF92BF92CF92E0
:1008D000DF92EF92FF920F931F932F933F934F93CB
:1008E0005F936F937F938F939F93AF93BF93CF93B8
:1008F000DF93EF93FF93A0910B07B0910C070DB618
:100900000D920EB60D920E94C00BA0910B07B091F4
:100910000C07CD91CDBFDD91DEBFFF91EF91DF914F
:10092000CF91BF91AF919F918F917F916F915F9187
:100930004F913F912F911F910F91FF90EF90DF907A
:10094000CF90BF90AF909F908F907F906F905F906F
:100950004F903F902F901F900F900FBE0F900895D3
:100960000F920FB6F8940F921F9211242F923F927C
:100970004F925F926F927F928F929F92AF92BF92AF
:10098000CF92DF92EF92FF920F931F932F933F939B
:100990004F935F936F937F938F939F93AF93BF9387
:1009A000CF93DF93EF93FF93A0910B07B0910C07C8
:1009B0000DB60D920EB60D920E94BB0981110E94D8
:1009C000C00BA0910B07B0910C07CD91CDBFDD916D
:1009D000DEBFFF91EF91DF91CF91BF91AF919F91DA
:1009E0008F917F916F915F914F913F912F911F91C7
:1009F0000F91FF90EF90DF90CF90BF90AF909F90BE
:100A00008F907F906F905F904F903F902F901F90AE
:100A10000F900FBE0F9008950E94B00418958FEFAD
:100A20008ABB9FE797BB84BB11BA1BBA18BA15BA29
:100A300012BA08950FB6F8940F92FC01828D8111BD
:100A400002C081E001C080E00F900FBE08950FB694
:100A5000F8940F92FC01228D838D281302C081E04F
:100A600001C080E00F900FBE08950F931F93CF93A6
:100A7000DF93EC01042F1A8D4C8D4423B9F1011141
:100A800016C050E08A819B810E94430D2C8D8A8183
:100A90009B81820F911D9B838A832C813D818217CC
:100AA000930720F1888199819B838A831FC050E03E
:100AB0008E819F810E94430D8C8D90E09195819550
:100AC00091092E813F81280F391F3F832E83488152
:100AD00059812417350730F42C813D81820F931FF3
:100AE0009F838E83023011F4111111501F5F1A8FF2
:100AF00080E0DF91CF911F910F9108951F93CF93C5
:100B0000DF93EC010FB6F8940F921E8D0BC089890C
:100B1000882351F0CE0141960E94260C81110E943B
:100B2000200D115011169CF38FEF8E8F0F900FBE7A
:100B30000FB6F8940F921D8D0BC08885882351F055
:100B4000CE0108960E94260C81110E94200D1150A2
:100B500011169CF38FEF8D8F0F900FBEDF91CF9109
:100B60001F9108950F931F93CF93DF93FC01362FAE
:100B7000892B09F44DC0238D222309F44BC0022F89
:100B800010E08FEF9FEFB8010E942F0D448D842F4E
:100B900090E06817790708F43FC0EF010FB6F894AA
:100BA0000F9260817181FB01249FE00DF11D1124E2
:100BB000FD83EC831A8E7B836A8301501109809F29
:100BC000A001819F500D909F500D1124CB01840FE7
:100BD000951F9F838E838FEF8D8F8E8F31110CC069
:100BE0008885882389F0CE0108960E94260C8823E8
:100BF00059F00E94570408C0CE0108960E9468026E
:100C0000CE0141960E9468020F900FBE81E005C0A0
:100C100080E003C080E001C080E0DF91CF911F91B0
:100C20000F9108950F931F93F801611103C0118371
:100C3000008302C051834083838F648F61E0CF01C2
:100C40000E94B2051F910F910895DF92EF92FF92DB
:100C50000F931F93CF93DF93382FE62F882329F12B
:100C6000682F70E08FEF9FEF0E942F0D8E2F90E086
:100C700068177907E8F03E9FC0011124813E2FEFED
:100C80009207C8F4D42EDE2FC32F4F960E948801FE
:100C90007C01009791F08C012D2DAC01415E5F4FDE
:100CA0006D2F8C2F0E94120608C0E12CF12C05C07C
:100CB000E12CF12C02C0E12CF12CC701DF91CF9186
:100CC0001F910F91FF90EF90DF900895CF92DF92E8
:100CD000EF92FF920F931F93CF93DF9300D000D03A
:100CE0001F92CDB7DEB78C017B015D834C83C22E92
:100CF000D12C0FB6F8940F92F801928D838D98172E
:100D000018F0F2E0CF1219C04C2DB701C8010E94B3
:100D10003505F8019189992349F0C80141960E944F
:100D2000260C882331F00E94570403C081110E94D1
:100D300057040F900FBE81E04DC08C819D81892B9F
:100D400021F40F900FBE80E045C0D11006C0CE0147
:100D500001960E94E30CDD24D3940F900FBE0E94F5
:100D6000B5090FB6F8940F92F801858D8F3F09F4FD
:100D7000158EF801868D8F3F09F4168E0F900FBEE9
:100D8000BE016C5F7F4FCE0101960E94EE0C811177
:100D90001BC0C8010E942705882381F06C817D81DA
:100DA000C80108960E94140CC8010E947E050E948A
:100DB000D50A81119ECF0E9457049BCFC8010E9483
:100DC0007E050E94D50A95CFC8010E947E050E942B
:100DD000D50A80E00F900F900F900F900F90DF9149
:100DE000CF911F910F91FF90EF90DF90CF900895DA
:100DF000FF920F931F93CF93DF9300D000D01F92E9
:100E0000CDB7DEB78C017D836C83F12C0FB6F894DF
:100E10000F92F801828D882381F08150828F808526
:100E2000882339F0C80108960E94260C81110E947F
:100E300057040F900FBE81E053C08C819D81892B98
:100E400021F40F900FBE80E04BC0F11006C0CE0120
:100E500001960E94E30CFF24F3940F900FBE0E94B2
:100E6000B5090FB6F8940F92F801858D8F3F09F4FC
:100E7000158EF801868D8F3F09F4168E0F900FBEE8
:100E8000BE016C5F7F4FCE0101960E94EE0C811176
:100E90001BC0C8010E941A05882381F06C817D81E6
:100EA000C80141960E94140CC8010E947E050E9450
:100EB000D50A8111ABCF0E945704A8CFC8010E9468
:100EC0007E050E94D50AA2CFC8010E947E050E941D
:100ED000D50AC8010E941A05882309F497CF80E03B
:100EE0000F900F900F900F900F90DF91CF911F9167
:100EF0000F91FF900895E091D306F091D406808180
:100F0000811107C08FEF9FEF9093B3068093B206D5
:100F10000895E091D306F091D4060580F681E02D86
:100F2000808191819093B3068093B2060895CF9308
:100F3000DF93EC018F89988D0E942202CE010E94DE
:100F40002202DF91CF9108956F927F928F929F92AC
:100F5000AF92BF92CF92DF92EF920F931F93CF93F6
:100F6000DF93CDB7DEB74C01F5018789908D215015
:100F700031093C01620E731E6115710589F415C0BB
:100F8000822F90E0FB01E80FF91F3081D501A80FF7
:100F9000B91F59963C938081882329F02F5F01C0A7
:100FA00020E0283068F3F50110A2F3E0FE1520F4EC
:100FB0000F2EF3E0EF2EF02DF501E68AC501029623
:100FC0000E947602C5010C960E947602F501B18658
:100FD000A08684E090E08E19910995878487B38A72
:100FE000A28AA801B401C3010E94BC03F501918348
:100FF0008083C114D10419F0F601B182A082DF917F
:10100000CF911F910F91EF90DF90CF90BF90AF9055
:101010009F908F907F906F900895CF93C0E010C005
:101020008C2F90E09C01220F331F220F331F220FC1
:10103000331F820F931F8951994F0E946802CF5F1F
:10104000C43070F38EED96E00E94680285ED96E064
:101050000E94680288EC96E00E9468028FEB96E09E
:101060000E9468028EED96E09093D4068093D3069A
:1010700085ED96E09093D2068093D106CF910895A6
:10108000CF93DF93EC010FB6F8940F928091BD06D9
:101090008F5F8093BD0680910B0790910C07892B81
:1010A00059F4D0930C07C0930B078091BD06813093
:1010B00099F40E940D0810C08091B90681110CC0EE
:1010C000E0910B07F0910C0796898E89891720F023
:1010D000D0930C07C0930B078091B4068F5F809369
:1010E000B4068E899091BA06981710F48093BA06C8
:1010F00090E0FC01EE0FFF1FEE0FFF1FEE0FFF1F32
:101100008E0F9F1FFC01E951F94F0180F281E02D04
:10111000FD83EC83848195819F838E83A481B58137
:10112000CE01029613969C938E9312979583848397
:10113000EE89F0E0CF01880F991F880F991F880F63
:10114000991FE80FF91FE951F94FFB87EA87808162
:101150008F5F80830F900FBE8091B906882351F076
:10116000E0910B07F0910C0796898E89981710F47F
:101170000E945704DF91CF910895CF93DF931CC055
:101180000FB6F8940F92E091C406F091C506C6819F
:10119000D781CE0102960E94AB028091BD0681509C
:1011A0008093BD068091BE0681508093BE060F904D
:1011B0000FBECE010E9497078091BE068111E0CF3D
:1011C000DF91CF9108950E94BD088091E70682309B
:1011D000D0F30E945704F7CF0F931F93CF93DF9361
:1011E000EC010091BB061091BC0680910B07909119
:1011F0000C0702960E94AB02C00FD11FE0910B07B3
:10120000F0910C07D383C283C017D10768F46091B3
:101210000B0770910C078091D1069091D2066E5FFA
:101220007F4F0E947A0217C060910B0770910C07E4
:101230008091D3069091D4066E5F7F4F0E947A0210
:101240008091B2069091B306C817D90720F4D093C5
:10125000B306C093B206DF91CF911F910F9108950D
:101260002F923F924F925F926F927F928F929F92B6
:10127000AF92BF92CF92DF92EF92FF920F931F93A4
:10128000CF93DF933C011B015A012901CA010E943F
:1012900088016C01892B99F086E290E00E94880118
:1012A000EC01892B41F086E2FE0111928A95E9F763
:1012B000D88ECF8A06C0C6010E94220202C0C0E0BA
:1012C000D0E0209791F0950140E050E0812C912CE6
:1012D0005E016701E02E8201B101C3010E94A407F3
:1012E000CE010E94400881E001C08FEFDF91CF91D5
:1012F0001F910F91FF90EF90DF90CF90BF90AF9034
:101300009F908F907F906F905F904F903F902F9025
:101310000895EF92FF920F930F2EF0EBEF2EF6E071
:10132000FF2EF02D00E020E030E040E253E06DEBD6
:1013300070E083EE98E00E943009813081F4F894E7
:101340008FEF9FEF9093B3068093B20681E0809376
:10135000B9061092BC061092BB060E942804809128
:1013600062000F91FF90EF9008958091AF068F5F1C
:101370008093AF0608950F931F93CF93DF938091CF
:10138000AF06811101C1C091BB06D091BC068E0190
:101390000F5F1F4F1093BC060093BB06011511058C
:1013A000B9F48091D3069091D4062091D106309162
:1013B000D2063093D4062093D3069093D20680931E
:1013C000D1068091B5068F5F8093B5060E947B079A
:1013D0008091B2069091B3060817190720F480E0B7
:1013E000B8C081E001C080E0E091D306F091D4065E
:1013F0009081911107C02FEF3FEF3093B3062093F8
:10140000B206A7C0E091D306F091D4060580F6811C
:10141000E02D0680F781E02D22813381021713072A
:1014200028F43093B3062093B20693C0A285B38507
:101430002481358146815781E9015D834C83268172
:10144000378144815581E9015B834A8311962D914F
:101450003C911297AF014E5F5F4F2417350731F46F
:101460002681378112963C932E931197138612860C
:101470009C9191509C93A489B589109719F1268568
:10148000378560897189E9017D836C832089318981
:1014900066857785E9017B836A8311966D917C91DE
:1014A00012979F01245F3F4F6217730731F4208921
:1014B000318912963C932E931197158A148A9C9128
:1014C00091509C9326899091BA06921710F420931C
:1014D000BA0630E0D901AA0FBB1FAA0FBB1FAA0F83
:1014E000BB1F2A0F3B1FD901A951B94F11960D906F
:1014F000BC91A02DB583A48314962D913C91159792
:101500003783268314962D913C911597E9015B83CF
:101510004A8315965C934E931497A689B0E09D017B
:10152000220F331F220F331F220F331FA20FB31FAF
:10153000A951B94FB387A2879C919F5F9C9326893D
:10154000E0910B07F0910C079689921708F449CFA8
:101550004BCFE0910B07F0910C07268930E0F901A1
:10156000EE0FFF1FEE0FFF1FEE0FFF1F2E0F3F1F8F
:10157000F901E951F94F9081923008F081E09091A2
:10158000B60691110CC00CC08091B7069091B806B8
:1015900001969093B8068093B70680E001C081E081
:1015A000DF91CF911F910F910895CF93DF930FB6E5
:1015B000F8940F928091AF0681508093AF0680918E
:1015C000AF068111BFC08091BD06811196C0BDC01C
:1015D000E091CD06F091CE060680F781E02DA4893A
:1015E000B589C685D785808991899D838C83C0897B
:1015F000D189868597859B838A8311962D913C910D
:101600001297CF010C962817390731F480899189F8
:1016100012969C938E931197158A148A8C918150FF
:101620008C93A285B385C481D581868197819D8362
:101630008C83C681D781848195819B838A8311960F
:101640008D919C9112979F012E5F3F4F82179307B8
:1016500031F48681978112969C938E93119713860D
:1016600012868C9181508C9386899091BA06981736
:1016700010F48093BA0690E0DC01AA0FBB1FAA0FFA
:10168000BB1FAA0FBB1F8A0F9B1FDC01A951B94FBB
:1016900011960D90BC91A02DB583A48314968D91C5
:1016A0009C911597978386831496CD91DC9115971D
:1016B0003B832A8315963C932E931497A689B0E01A
:1016C000CD01880F991F880F991F880F991FA80FA8
:1016D000B91FA951B94FB387A2878C918F5F8C93A3
:1016E0009689A0910B07B0910C0756968C9198178C
:1016F00030F081E08093B60602C0E0E0F0E0809137
:10170000C806811165CFEF2B11F00E947B07C091B5
:10171000B706D091B806209769F00E94BB098823CC
:1017200019F081E08093B6062197B9F71092B806B8
:101730001092B7068091B606882331F00E945704B4
:1017400081E003C080E001C080E00F900FBEDF9118
:10175000CF910895CF93DF93EC01892B49F00E943C
:10176000B50960E0CE010E94EC080E94D50A01C0D4
:1017700080E0811102C00E945704DF91CF9108954B
:101780008091AF06882321F081E08093B60608950A
:101790001092B6062091BA0601C02150822F90E027
:1017A000FC01EE0FFF1FEE0FFF1FEE0FFF1FE80FF4
:1017B000F91FE951F94F3081332379F3AC01440F1C
:1017C000551F440F551F440F551F480F591FDF0168
:1017D0000180F281E02D0280F381E02D1296FC93CE
:1017E000EE9311974651594FE417F50729F44281BA
:1017F0005381FD0152834183FC01EE0FFF1FEE0F69
:10180000FF1FEE0FFF1F8E0F9F1FFC01E951F94FC5
:101810000180F281E02D8681978190930C0780935F
:101820000B072093BA060895CF93DF93EB016091E5
:101830000B0770910C07645F7F4F0E947A0261E092
:10184000CE010E94EC08DF91CF910895CF93DF93F2
:10185000DC011596ED91FC9116970680F781E02D3D
:10186000A489B589C685D785808991899D838C8314
:10187000C089D189868597859B838A8311968D91AE
:101880009C9112979F01245F3F4F8217930731F479
:101890008089918912969C938E931197158A148A48
:1018A0008C9181508C938091AF06811160C0A2858C
:1018B000B385C481D581868197819D838C83C681C0
:1018C000D781848195819B838A8311968D919C9188
:1018D00012979F012E5F3F4F8217930731F4868145
:1018E000978112969C938E931197138612868C91F2
:1018F00081508C9386899091BA06981710F4809342
:10190000BA0690E0DC01AA0FBB1FAA0FBB1FAA0FEB
:10191000BB1F8A0F9B1FDC01A951B94F11960D9077
:10192000BC91A02DB583A48314968D919C9115979D
:10193000978386831496CD91DC9115973B832A83F8
:1019400015963C932E931497A689B0E0CD01880F8D
:10195000991F880F991F880F991FA80FB91FA951A8
:10196000B94FB387A2878C918F5F8C931CC048ECD2
:1019700056E0DA011196CD91DC911297D787C68790
:101980008C819D81918B808B8C819D81DC01139654
:101990003C932E9312973D832C83558B448BDA0115
:1019A0008C918F5F8C939689E0910B07F0910C07D7
:1019B0008689891720F481E08093B60601C080E013
:1019C000DF91CF9108952091B506FC0120832091ED
:1019D000BB063091BC06328321830895CF93DF93F9
:1019E0000FB6F8940F924091BB065091BC06EC01E3
:1019F00029813A81DA01A21BB30BF881E091B50687
:101A0000FE1741F04217530728F0FB0111821082A4
:101A100081E011C0EB0128813981A217B30740F49E
:101A20002A1B3B0B398328830E94E30C80E003C010
:101A30001982188281E00F900FBEDF91CF91089537
:101A400081E08093B606089581B5886081BD0895D0
:101A500081B5887F81BD81B5876081BD0895AA1B4E
:101A6000BB1B51E107C0AA1FBB1FA617B70710F089
:101A7000A61BB70B881F991F5A95A9F780959095BB
:101A8000BC01CD010895FB01DC0102C001900D9263
:0C1A900041505040D8F70895F894FFCF63
:101A9C00DB05033B003800350032005441534B202A
:101AAC0031206973204F6E20005441534B2031205C
:101ABC006973204F6E20574F4F4F4F5720005441A2
:101ACC00534B2032206973204F6E20005441534BEE
:101ADC002032206973204F6E20574F4F4F4F5720A5
:101AEC00004C43445F31004C43445F320049444C4A
:021AFC004500A3
:00000001FF
