:100000000C942A000C9447000C9447000C94470071
:100010000C9447000C9447000C9447000C94430444
:100020000C9447000C9447000C9447000C94470034
:100030000C9447000C9447000C9447000C94470024
:100040000C9447000C9447000C9447000C94470014
:100050000C94470011241FBECFE5D8E0DEBFCDBF12
:1000600010E0A0E6B0E0E4EFF8E102C005900D92E8
:10007000A839B107D9F726E0A8E9B0E001C01D9280
:10008000A13EB207E1F70E94AD020C94780C0C94EB
:100090000000CF93C82F40E061E080E00E94C000E4
:1000A00040E061E081E00E94C0006C2F80E00E948F
:1000B000E60041E061E082E00E94C0008FE99FE03D
:1000C0000197F1F700C0000040E061E082E00E948B
:1000D000C000CF9108952FEF89EF90E0215080402C
:1000E0009040E1F700C0000088E30E9449008CE0E6
:1000F0000E94490081E00E9449000895CF93C82FD3
:1001000041E061E080E00E94C00040E061E081E009
:100110000E94C0006C2F80E00E94E60041E061E098
:1001200082E00E94C0008FE99FE00197F1F700C0D4
:10013000000040E061E082E00E94C000CF9108959D
:100140000F931F93CF938C01C0E003C00E947E00E9
:10015000CF5FF801EC0FF11D80818111F7CFCF91B6
:100160001F910F91089590E4899F600D1124862FAF
:1001700080580E944900089581E00E944900089536
:10018000883000F5643000F5E62FF0E0EE0FFF1F39
:10019000ED59FF4F0190F081E02D908121E030E09A
:1001A000082E02C0220F331F0A94E2F750E002C06B
:1001B000440F551F8A95E2F720952923422B40834F
:1001C00081E0089580E0089580E00895843060F42F
:1001D000E82FF0E0EE0FFF1FED59FF4F0190F08187
:1001E000E02D608381E0089580E00895ADE9B0E0FE
:1001F000E1EAF0E01196FC93EE9313961C921E92A6
:100200001297A9E9B0E08BED95E013969C938E933D
:10021000129711961C921E9293838283B183A083BE
:100220000895EF92FF920F931F93CF93DF93EC010A
:100230000E94EC0880919800811105C00E94F60090
:1002400081E080939800209741F0CB3F8FEFD80753
:1002500010F4259602C0C0E0D0E0DD230CF466C0A7
:10026000209709F466C020916000309161002C173E
:100270003D0708F461C0E0919D00F0919E00ADE95A
:10028000B0E002C0DF01FC01828193818C179D07E1
:1002900020F4808191810097A9F780E0E939F8077F
:1002A00009F44DC00D911C9111970C5F1F4F808177
:1002B00091818D939C93828193818C1B9D0B8930BE
:1002C000910530F1BF016C0F7D1FDB0113969C93EC
:1002D0008E931297D383C28312964D915C9113979C
:1002E0000F2EFDE9EF2EF0E0FF2EF02D01C07D0175
:1002F000E701A881B98112968D919C91139784177B
:100300009507A8F3EB01B983A883D7016D937C937C
:1003100082819381281B390B309361002093600008
:10032000906893838283118210820BC000E010E0FA
:1003300008C000E010E005C000E010E002C000E0EE
:1003400010E00E940C0AC801DF91CF911F910F911C
:10035000FF90EF900895EF92FF920F931F93CF932A
:10036000DF930097B9F1EC0124972A813B81332375
:100370008CF548815981452B69F58C013F773B838A
:100380002A830E94EC082A813B814DE950E001C09C
:10039000AF01DA01ED91FC9182819381821793077D
:1003A000B8F3C8010497DC011196FC93EE93FA01AF
:1003B000D183C08312968D919C91139720916000F8
:1003C00030916100820F931F9093610080936000D1
:1003D0000E940C0ADF91CF911F910F91FF90EF9037
:1003E0000895FC010396928381832FEF3FEF3483BE
:1003F0002383968385839087878310820895FC01E9
:10040000118610860895CF93DF93EB0148815981BF
:100410004F3F2FEF520721F4FC01A781B0850DC09B
:10042000DC01139601C0DF011296ED91FC91139748
:100430002081318142175307B0F71296ED91FC915C
:100440001397FB83EA83D583C483BD83AC83139660
:10045000DC93CE93129799878887FC0120812F5FC8
:100460002083DF91CF910895CF93DF93FC01A08586
:10047000B185C281D381848195819D838C83C48120
:10048000D581828193819B838A8311968D919C91E2
:100490001297E817F90731F48481958112969C939D
:1004A0008E931197118610868C9181508C938C912C
:1004B000DF91CF91089564E670E08091810690917C
:1004C00082060E942F068130B1F70E94BC008BE6A5
:1004D00090E00E94A0002FEF83ED90E32150804038
:1004E0009040E1F700C0000020E040E050E060E014
:1004F00070E080918106909182060E949D0588EEB1
:1005000093E00E94E10AD7CF64E670E08091810613
:10051000909182060E942F068130B1F70E94BC00A4
:1005200089E790E00E94A0002FEF83ED90E3215037
:1005300080409040E1F700C0000020E040E050E043
:1005400060E070E080918106909182060E949D0596
:1005500084EF91E00E94E10AD7CF0E9446040E94F6
:100560006B0060E081E00E94B30043E060E081E066
:100570000E945C05909382068093810620E040E013
:1005800050E060E070E00E949D050F2EFFE7EF2E27
:10059000F6E0FF2EF02D01E020E030E044E650E0F0
:1005A00067E870E08BE592E00E9467080F2EFDE798
:1005B000EF2EF6E0FF2EF02D00E020E030E044E6E4
:1005C00050E06DE870E084E892E00E9467080E94C5
:1005D000C008FFCF1BBC8CE78ABD8BE08EBD89B7FE
:1005E000806189BF089531E1FC013083319722E2B7
:1005F00020833197A3E3A083319760833197708381
:1006000031971082319760E860833197108231977B
:1006100062E06083319763E06083319764E06083D8
:10062000319765E06083319766E06083319767E0DA
:100630006083319768E06083319769E06083319728
:1006400060E1608331973083319732E130833197B5
:1006500033E13083319734E13083319735E13083B2
:10066000319736E13083319737E13083319738E184
:100670003083319739E13083319730E230833197DD
:1006800031E2308331972083319723E22083319701
:10069000408331975083319726E22083319727E2B8
:1006A0002083319728E22083319729E220833197F4
:1006B00020E32083319721E32083869708950E94C9
:1006C000EA02A091DF06B091E006CD91CDBFDD91A9
:1006D000DEBFFF91EF91DF91CF91BF91AF919F91DD
:1006E0008F917F916F915F914F913F912F911F91CA
:1006F0000F91FF90EF90DF90CF90BF90AF909F90C1
:100700008F907F906F905F904F903F902F901F90B1
:100710000F900FBE0F90089581E008950F920FB6CD
:10072000F8940F921F9211242F923F924F925F9252
:100730006F927F928F929F92AF92BF92CF92DF92F1
:10074000EF92FF920F931F932F933F934F935F93DB
:100750006F937F938F939F93AF93BF93CF93DF93C9
:10076000EF93FF93A091DF06B091E0060DB60D92D6
:100770000EB60D920E94F70AA091DF06B091E00636
:10078000CD91CDBFDD91DEBFFF91EF91DF91CF9194
:10079000BF91AF919F918F917F916F915F914F9199
:1007A0003F912F911F910F91FF90EF90DF90CF908D
:1007B000BF90AF909F908F907F906F905F904F9081
:1007C0003F902F901F900F900FBE0F9008950F92A3
:1007D0000FB6F8940F921F9211242F923F924F92CE
:1007E0005F926F927F928F929F92AF92BF92CF92C1
:1007F000DF92EF92FF920F931F932F933F934F93AC
:100800005F936F937F938F939F93AF93BF93CF9398
:10081000DF93EF93FF93A091DF06B091E0060DB652
:100820000D920EB60D920E94F20881110E94F70AF5
:10083000A091DF06B091E006CD91CDBFDD91DEBF86
:10084000FF91EF91DF91CF91BF91AF919F918F91E8
:100850007F916F915F914F913F912F911F910F91D8
:10086000FF90EF90DF90CF90BF90AF909F908F90D0
:100870007F906F905F904F903F902F901F900F90C0
:100880000FBE0F9008950E94E70318958FEF8ABB63
:100890009FE797BB84BB11BA1BBA18BA15BA12BA34
:1008A00008950FB6F8940F92FC01828D811102C059
:1008B00081E001C080E00F900FBE08950FB6F8945C
:1008C0000F92FC01228D838D281302C081E001C0AC
:1008D00080E00F900FBE08950F931F93CF93DF9387
:1008E000EC01042F1A8D4C8D4423B9F1011116C06F
:1008F00050E08A819B810E946F0C2C8D8A819B81A4
:10090000820F911D9B838A832C813D8182179307DF
:1009100020F1888199819B838A831FC050E08E815A
:100920009F810E946F0C8C8D90E09195819591092B
:100930002E813F81280F391F3F832E8348815981A3
:100940002417350730F42C813D81820F931F9F833C
:100950008E83023011F4111111501F5F1A8F80E045
:10096000DF91CF911F910F9108951F93CF93DF9344
:10097000EC010FB6F8940F921E8D0BC08989882365
:1009800051F0CE0141960E945D0B81110E94570CDF
:10099000115011169CF38FEF8E8F0F900FBE0FB674
:1009A000F8940F921D8D0BC08885882351F0CE01DD
:1009B00008960E945D0B81110E94570C1150111670
:1009C0009CF38FEF8D8F0F900FBEDF91CF911F9112
:1009D00008950F931F93CF93DF93FC01362F892B3C
:1009E00009F44DC0238D222309F44BC0022F10E0DF
:1009F0008FEF9FEFB8010E945B0C448D842F90E035
:100A00006817790708F43FC0EF010FB6F8940F920A
:100A100060817181FB01249FE00DF11D1124FD8394
:100A2000EC831A8E7B836A8301501109809FA00199
:100A3000819F500D909F500D1124CB01840F951F65
:100A40009F838E838FEF8D8F8E8F31110CC08885A1
:100A5000882389F0CE0108960E945D0B882359F007
:100A60000E948E0308C0CE0108960E94F101CE01BB
:100A700041960E94F1010F900FBE81E005C080E019
:100A800003C080E001C080E0DF91CF911F910F9102
:100A900008950F931F93F801611103C01183008320
:100AA00002C051834083838F648F61E0CF010E9435
:100AB000E9041F910F910895DF92EF92FF920F9337
:100AC0001F93CF93DF93382FE62F882329F1682FC8
:100AD00070E08FEF9FEF0E945B0C8E2F90E0681705
:100AE0007907E8F03E9FC0011124813E2FEF920765
:100AF000C8F4D42EDE2FC32F4F960E9411017C0123
:100B0000009791F08C012D2DAC01415E5F4F6D2F50
:100B10008C2F0E94490508C0E12CF12C05C0E12C66
:100B2000F12C02C0E12CF12CC701DF91CF911F9174
:100B30000F91FF90EF90DF900895CF92DF92EF92A8
:100B4000FF920F931F93CF93DF9300D000D01F929B
:100B5000CDB7DEB78C017B015D834C83C22ED12CD7
:100B60000FB6F8940F92F801928D838D981718F0B4
:100B7000F2E0CF1219C04C2DB701C8010E946C04DD
:100B8000F8019189992349F0C80141960E945D0BB3
:100B9000882331F00E948E0303C081110E948E03CE
:100BA0000F900FBE81E04DC08C819D81892B21F477
:100BB0000F900FBE80E045C0D11006C0CE01019657
:100BC0000E941A0CDD24D3940F900FBE0E94EC08F3
:100BD0000FB6F8940F92F801858D8F3F09F4158EAA
:100BE000F801868D8F3F09F4168E0F900FBEBE015F
:100BF0006C5F7F4FCE0101960E94250C81111BC0B6
:100C0000C8010E945E04882381F06C817D81C80147
:100C100008960E944B0BC8010E94B5040E940C0A62
:100C200081119ECF0E948E039BCFC8010E94B50404
:100C30000E940C0A95CFC8010E94B5040E940C0ABC
:100C400080E00F900F900F900F900F90DF91CF9159
:100C50001F910F91FF90EF90DF90CF900895FF923A
:100C60000F931F93CF93DF9300D000D01F92CDB787
:100C7000DEB78C017D836C83F12C0FB6F8940F9254
:100C8000F801828D882381F08150828F80858823AE
:100C900039F0C80108960E945D0B81110E948E03F5
:100CA0000F900FBE81E053C08C819D81892B21F470
:100CB0000F900FBE80E04BC0F11006C0CE01019630
:100CC0000E941A0CFF24F3940F900FBE0E94EC08B0
:100CD0000FB6F8940F92F801858D8F3F09F4158EA9
:100CE000F801868D8F3F09F4168E0F900FBEBE015E
:100CF0006C5F7F4FCE0101960E94250C81111BC0B5
:100D0000C8010E945104882381F06C817D81C80153
:100D100041960E944B0BC8010E94B5040E940C0A28
:100D20008111ABCF0E948E03A8CFC8010E94B504E9
:100D30000E940C0AA2CFC8010E94B5040E940C0AAE
:100D4000C8010E945104882309F497CF80E00F90D6
:100D50000F900F900F900F90DF91CF911F910F91F7
:100D6000FF900895E091A706F091A8068081811177
:100D700007C08FEF9FEF90938706809386060895B4
:100D8000E091A706F091A8060580F681E02D80810C
:100D9000918190938706809386060895CF93DF9381
:100DA000EC018F89988D0E94AB01CE010E94AB01AE
:100DB000DF91CF9108956F927F928F929F92AF9221
:100DC000BF92CF92DF92EF920F931F93CF93DF9357
:100DD000CDB7DEB74C01F5018789908D21503109DF
:100DE0003C01620E731E6115710589F415C0822FD6
:100DF00090E0FB01E80FF91F3081D501A80FB91F62
:100E000059963C938081882329F02F5F01C020E010
:100E1000283068F3F50110A2F3E0FE1520F40F2E40
:100E2000F3E0EF2EF02DF501E68AC50102960E944F
:100E3000FF01C5010C960E94FF01F501B186A08655
:100E400084E090E08E19910995878487B38AA28AFD
:100E5000A801B401C3010E94F302F50191838083CC
:100E6000C114D10419F0F601B182A082DF91CF91B3
:100E70001F910F91EF90DF90CF90BF90AF909F9018
:100E80008F907F906F900895CF93C0E010C08C2F0B
:100E900090E09C01220F331F220F331F220F331FBC
:100EA000820F931F8554994F0E94F101CF5FC43088
:100EB00070F382EB96E00E94F10189EA96E00E94CD
:100EC000F1018CE996E00E94F10183E996E00E942D
:100ED000F10182EB96E09093A8068093A70689EA39
:100EE00096E09093A6068093A506CF910895CF93A0
:100EF000DF93EC010FB6F8940F92809191068F5F0B
:100F0000809391068091DF069091E006892B59F439
:100F1000D093E006C093DF0680919106813099F46A
:100F20000E94440710C080918D0681110CC0E09191
:100F3000DF06F091E00696898E89891720F0D0931C
:100F4000E006C093DF06809188068F5F8093880655
:100F50008E8990918E06981710F480938E0690E0FB
:100F6000FC01EE0FFF1FEE0FFF1FEE0FFF1F8E0F96
:100F70009F1FFC01E554F94F0180F281E02DFD83B4
:100F8000EC83848195819F838E83A481B581CE017A
:100F9000029613969C938E93129795838483EE8981
:100FA000F0E0CF01880F991F880F991F880F991FB4
:100FB000E80FF91FE554F94FFB87EA8780818F5FBF
:100FC00080830F900FBE80918D06882351F0E091B1
:100FD000DF06F091E00696898E89981710F40E943A
:100FE0008E03DF91CF910895CF93DF931CC00FB68E
:100FF000F8940F92E0919806F0919906C681D781F6
:10100000CE0102960E943402809191068150809315
:101010009106809192068150809392060F900FBEA8
:10102000CE010E94CE06809192068111E0CFDF9121
:10103000CF9108950E94F4078091BB068230D0F3CF
:101040000E948E03F7CF0F931F93CF93DF93EC0192
:1010500000918F06109190068091DF069091E00636
:1010600002960E943402C00FD11FE091DF06F0917A
:10107000E006D383C283C017D10768F46091DF060E
:101080007091E0068091A5069091A6066E5F7F4F55
:101090000E94030217C06091DF067091E006809104
:1010A000A7069091A8066E5F7F4F0E940302809171
:1010B000860690918706C817D90720F4D093870633
:1010C000C0938606DF91CF911F910F9108952F92C3
:1010D0003F924F925F926F927F928F929F92AF92C8
:1010E000BF92CF92DF92EF92FF920F931F93CF9315
:1010F000DF933C011B015A012901CA010E94110121
:101100006C01892B99F086E290E00E941101EC01BC
:10111000892B41F086E2FE0111928A95E9F7D88E7B
:10112000CF8A06C0C6010E94AB0102C0C0E0D0E079
:10113000209791F0950140E050E0812C912C5E01C8
:101140006701E02E8201B101C3010E94DB06CE01DE
:101150000E94770781E001C08FEFDF91CF911F914F
:101160000F91FF90EF90DF90CF90BF90AF909F9046
:101170008F907F906F905F904F903F902F90089549
:10118000EF92FF920F930F2EF4E8EF2EF6E0FF2E72
:10119000F02D00E020E030E040E253E063E970E051
:1011A0008AE198E00E946708813081F4F8948FEF1B
:1011B0009FEF909387068093860681E080938D064B
:1011C0001092900610928F060E945F038091620039
:1011D0000F91FF90EF900895809183068F5F809329
:1011E000830608950F931F93CF93DF938091830617
:1011F000811101C1C0918F06D09190068E010F5FC1
:101200001F4F1093900600938F0601151105B9F436
:101210008091A7069091A8062091A5063091A60678
:101220003093A8062093A7069093A6068093A50660
:10123000809189068F5F809389060E94B206809113
:101240008606909187060817190720F480E0B8C039
:1012500081E001C080E0E091A706F091A8069081AE
:10126000911107C02FEF3FEF30938706209386063A
:10127000A7C0E091A706F091A8060580F681E02DB1
:101280000680F781E02D228133810217130728F4AD
:10129000309387062093860693C0A285B385248168
:1012A000358146815781E9015D834C8326813781F1
:1012B00044815581E9015B834A8311962D913C91CC
:1012C0001297AF014E5F5F4F2417350731F4268127
:1012D000378112963C932E931197138612869C9118
:1012E00091509C93A489B589109719F1268537856B
:1012F00060897189E9017D836C83208931896685E4
:101300007785E9017B836A8311966D917C911297B1
:101310009F01245F3F4F6217730731F420893189A1
:1013200012963C932E931197158A148A9C91915092
:101330009C93268990918E06921710F420938E0626
:1013400030E0D901AA0FBB1FAA0FBB1FAA0FBB1FFA
:101350002A0F3B1FD901A554B94F11960D90BC918E
:10136000A02DB583A48314962D913C9115973783B6
:10137000268314962D913C911597E9015B834A834E
:1013800015965C934E931497A689B0E09D01220FA9
:10139000331F220F331F220F331FA20FB31FA55479
:1013A000B94FB387A2879C919F5F9C932689E09158
:1013B000DF06F091E0069689921708F449CF4BCFEB
:1013C000E091DF06F091E006268930E0F901EE0FAA
:1013D000FF1FEE0FFF1FEE0FFF1F2E0F3F1FF90124
:1013E000E554F94F9081923008F081E090918A069F
:1013F00091110CC00CC080918B0690918C060196C7
:1014000090938C0680938B0680E001C081E0DF9191
:10141000CF911F910F910895CF93DF930FB6F8945A
:101420000F9280918306815080938306809183067A
:101430008111BFC080919106811196C0BDC0E0911D
:10144000A106F091A2060680F781E02DA489B58956
:10145000C685D785808991899D838C83C089D189F0
:10146000868597859B838A8311962D913C9112974F
:10147000CF010C962817390731F48089918912968B
:101480009C938E931197158A148A8C9181508C931A
:10149000A285B385C481D581868197819D838C8304
:1014A000C681D781848195819B838A8311968D9192
:1014B0009C9112979F012E5F3F4F8217930731F443
:1014C0008681978112969C938E931197138612862C
:1014D0008C9181508C93868990918E06981710F488
:1014E00080938E0690E0DC01AA0FBB1FAA0FBB1FE2
:1014F000AA0FBB1F8A0F9B1FDC01A554B94F119681
:101500000D90BC91A02DB583A48314968D919C91D0
:101510001597978386831496CD91DC9115973B831D
:101520002A8315963C932E931497A689B0E0CD019B
:10153000880F991F880F991F880F991FA80FB91F2F
:10154000A554B94FB387A2878C918F5F8C939689EE
:10155000A091DF06B091E00656968C91981730F076
:1015600081E080938A0602C0E0E0F0E080919C0672
:10157000811165CFEF2B11F00E94B206C0918B064E
:10158000D0918C06209769F00E94F208882319F008
:1015900081E080938A062197B9F710928C06109209
:1015A0008B0680918A06882331F00E948E0381E0A9
:1015B00003C080E001C080E00F900FBEDF91CF91AB
:1015C0000895CF93DF93EC01892B49F00E94EC083A
:1015D00060E0CE010E9423080E940C0A01C080E056
:1015E000811102C00E948E03DF91CF9108958091F6
:1015F0008306882321F081E080938A060895109263
:101600008A0620918E0601C02150822F90E0FC01B5
:10161000EE0FFF1FEE0FFF1FEE0FFF1FE80FF91F6A
:10162000E554F94F3081332379F3AC01440F551F52
:10163000440F551F440F551F480F591FDF010180EC
:10164000F281E02D0280F381E02D1296FC93EE935F
:1016500011974254594FE417F50729F442815381F9
:10166000FD0152834183FC01EE0FFF1FEE0FFF1FB0
:10167000EE0FFF1F8E0F9F1FFC01E554F94F0180F5
:10168000F281E02D868197819093E0068093DF06BA
:1016900020938E060895CF93DF93EB016091DF06D0
:1016A0007091E006645F7F4F0E94030261E0CE010B
:1016B0000E942308DF91CF910895CF93DF93DC013F
:1016C0001596ED91FC9116970680F781E02DA4897F
:1016D000B589C685D785808991899D838C83C0898A
:1016E000D189868597859B838A8311968D919C915C
:1016F00012979F01245F3F4F8217930731F480892F
:10170000918912969C938E931197158A148A8C91C5
:1017100081508C9380918306811160C0A285B3852E
:10172000C481D581868197819D838C83C681D78131
:10173000848195819B838A8311968D919C911297C8
:101740009F012E5F3F4F8217930731F48681978167
:1017500012969C938E931197138612868C918150CA
:101760008C93868990918E06981710F480938E063C
:1017700090E0DC01AA0FBB1FAA0FBB1FAA0FBB1F63
:101780008A0F9B1FDC01A554B94F11960D90BC9197
:10179000A02DB583A48314968D919C911597978362
:1017A00086831496CD91DC9115973B832A831596F9
:1017B0003C932E931497A689B0E0CD01880F991F12
:1017C000880F991F880F991FA80FB91FA554B94FEB
:1017D000B387A2878C918F5F8C931CC04CE956E035
:1017E000DA011196CD91DC911297D787C6878C814B
:1017F0009D81918B808B8C819D81DC0113963C9324
:101800002E9312973D832C83558B448BDA018C9158
:101810008F5F8C939689E091DF06F091E0068689D0
:10182000891720F481E080938A0601C080E0DF916F
:10183000CF91089520918906FC01208320918F0685
:1018400030919006328321830895CF93DF930FB6B2
:10185000F8940F9240918F0650919006EC012981E7
:101860003A81DA01A21BB30BF881E0918906FE17D9
:1018700041F04217530728F0FB011182108281E0EA
:1018800011C0EB0128813981A217B30740F42A1B4C
:101890003B0B398328830E941A0C80E003C0198215
:1018A000188281E00F900FBEDF91CF91089581E003
:1018B00080938A060895AA1BBB1B51E107C0AA1F8B
:1018C000BB1FA617B70710F0A61BB70B881F991FE1
:1018D0005A95A9F780959095BC01CD010895FB011B
:1018E000DC0102C001900D9241505040D8F708959C
:0418F000F894FFCF9A
:1018F400DB05033B003800350032005441534B20D4
:1019040031206973204F6E20005441534B20322004
:101914006973204F6E20004C43445F31004C4344B4
:081924005F320049444C45000C
:00000001FF
