S0110000536D617274486F6D652E7372656383
S11300000C942A000C94E3010C9447000C944700D0
S11300100C9447000C9447000C9447000C949E06E3
S11300200C9447000C9447000C9447000C94470030
S11300300C9447000C9447000C9447000C94470020
S11300400C9447000C9447000C9447000C94470010
S11300500C94470011241FBECFE5D8E0DEBFCDBF0E
S113006010E0A0E6B0E0E0EAF4E202C005900D92F0
S1130070A43FB107D9F728E0A4EFB0E001C01D9276
S1130080AF32B207E1F70E94D3040C944E120C94E1
S1130090000087B18F7B87B987B18F7787B987B124
S11300A08F7D87B986B1887F86B986B1876086B926
S11300B086B1806886B9089517B886B1806186B91B
S11300C086B1806486B9349BFECF84B195B108951E
S11300D0CF93C82F40E060E081E00E94730140E0CC
S11300E060E082E00E9473016C2F82E00E9499011B
S11300F041E060E083E00E9473018FE99FE0019793
S1130100F1F700C0000040E060E083E00E9473016A
S1130110CF9108952FEF89EF90E0215080409040D7
S1130120E1F700C0000088E30E9468008CE00E94B0
S1130130680081E00E9468000895CF93C82F41E0D1
S113014060E081E00E94730140E060E082E00E9490
S113015073016C2F82E00E94990141E060E083E02A
S11301600E9473018FE99FE00197F1F700C000003E
S113017040E060E083E00E947301CF9108950F9303
S11301801F93CF938C01C0E003C00E949D00CF5FFA
S1130190F801EC0FF11D80818111F7CFCF911F91F0
S11301A00F910895CF93DF931F92CDB7DEB78130BF
S11301B019F46158698304C0823011F4615469836D
S11301C089810E9468000F90DF91CF910895CF93A9
S11301D0C82F40E060E084E00E94730140E060E0EA
S11301E085E00E9473016C2F81E00E94990141E037
S11301F060E086E00E9473018FE99FE00197F1F7C8
S113020000C0000040E060E086E00E947301CF91EE
S113021008952FEF89EF90E0215080409040E1F75E
S113022000C0000088E30E94E7008CE00E94E70021
S113023081E00E94E7000895CF93C82F41E060E079
S113024084E00E94730140E060E085E00E94730155
S11302506C2F81E00E94990141E060E086E00E94F9
S113026073018FE99FE00197F1F700C0000040E0BF
S113027060E086E00E947301CF9108950F931F936D
S1130280CF938C01C0E003C00E941C01CF5FF80132
S1130290EC0FF11D80818111F7CFCF911F910F9148
S11302A0089581E00E94E7000895CF93DF93CDB7CE
S11302B0DEB72A970FB6F894DEBF0FBECDBF4AE073
S11302C050E0BE016F5F7F4F0E940E12CE01019677
S11302D00E943E012A960FB6F894DEBF0FBECDBF32
S11302E0DF91CF910895883000F5643000F5E62F52
S11302F0F0E0EE0FFF1FE559FF4F0190F081E02D74
S1130300908121E030E0082E02C0220F331F0A94AE
S1130310E2F750E002C0440F551F8A95E2F720959A
S11303202923422B408381E0089580E0089580E0F2
S11303300895843060F4E82FF0E0EE0FFF1FE559D4
S1130340FF4F0190F081E02D608381E0089580E00B
S113035008954115510511F1683010F5E82FF0E0CA
S1130360EE0FFF1FED59FF4F0190F081E02D7081DA
S113037081E090E09C01062E02C0220F331F0A94F4
S1130380E2F7872F90E08223932302C09595879507
S11303906A95E2F7FA01808381E0089580E0089588
S11303A080E0089585B7816085BF85B7826085BF89
S11303B08BB780648BBF0895009721F09093F5006C
S11303C08093F40008951F920F920FB60F92112498
S11303D02F933F934F935F936F937F938F939F9349
S11303E0AF93BF93EF93FF93E091F400F091F50086
S11303F00995FF91EF91BF91AF919F918F917F915B
S11304006F915F914F913F912F910F900FBE0F907D
S11304101F9018958FB780688FBF0895ABEFB0E039
S1130420EFEFF0E01196FC93EE9313961C921E925C
S11304301297A7EFB0E083EA96E013969C938E930D
S1130440129711961C921E9293838283B183A08388
S11304500895EF92FF920F931F93CF93DF93EC01D4
S11304600E94050C8091F600811105C00E940E02C5
S113047081E08093F600209741F0CB3F8FEFD807BF
S113048010F4259602C0C0E0D0E0DD230CF466C071
S1130490209709F466C020916000309161002C1708
S11304A03D0708F461C0E091FB00F091FC00ABEF64
S11304B0B0E002C0DF01FC01828193818C179D07AB
S11304C020F4808191810097A9F780E0E73FF80745
S11304D009F44DC00D911C9111970C5F1F4F808141
S11304E091818D939C93828193818C1B9D0B893088
S11304F0910530F1BF016C0F7D1FDB0113969C93B6
S11305008E931297D383C28312964D915C91139765
S11305100F2EFBEFEF2EF0E0FF2EF02D01C07D013A
S1130520E701A881B98112968D919C911397841744
S11305309507A8F3EB01B983A883D7016D937C9346
S113054082819381281B390B3093610020936000D2
S1130550906893838283118210820BC000E010E0C4
S113056008C000E010E005C000E010E002C000E0B8
S113057010E00E94250DC801DF91CF911F910F91CA
S1130580FF90EF900895EF92FF920F931F93CF93F4
S1130590DF930097B9F1EC0124972A813B8133233F
S11305A08CF548815981452B69F58C013F773B8354
S11305B02A830E94050C2A813B814BEF50E001C045
S11305C0AF01DA01ED91FC91828193818217930747
S11305D0B8F3C8010497DC011196FC93EE93FA0179
S11305E0D183C08312968D919C91139720916000C2
S11305F030916100820F931F90936100809360009B
S11306000E94250DDF91CF911F910F91FF90EF90E4
S11306100895FC010396928381832FEF3FEF348387
S11306202383968385839087878310820895FC01B2
S1130630118610860895CF93DF939C01FB01DC01A2
S11306401196CD91DC911297D383C2838C819D81C5
S1130650958384838C819D81DC0113967C936E93B6
S113066012977D836C8331872087F90180818F5FA6
S11306708083DF91CF910895CF93DF93EB0148817D
S113068059814F3F2FEF520721F4FC01A781B08518
S11306900DC0DC01139601C0DF011296ED91FC91AF
S11306A013972081318142175307B0F71296ED91C9
S11306B0FC911397FB83EA83D583C483BD83AC8306
S11306C01396DC93CE93129799878887FC01208137
S11306D02F5F2083DF91CF910895CF93DF93FC01A7
S11306E0A085B185C281D381848195819D838C83CA
S11306F0C481D581828193819B838A8311968D9154
S11307009C911297E817F90731F484819581129628
S11307109C938E931197118610868C9181508C93A3
S11307208C91DF91CF91089547EA57E063E083E02D
S11307300E94A9018091A707813031F441E063E070
S113074086E00E94730107C0811105C040E063E0A8
S113075086E00E9473018CED95E00E94FA0DE4CFCF
S11307608091A707813091F461E082E00E94D20079
S113077083E790E00E94BF002FEF83EC99E02150C3
S113078080409040E1F700C0000013C0811111C007
S113079061E082E00E94D20083E890E00E94BF0002
S11307A02FEF83EC99E0215080409040E1F700C0A6
S11307B000008091A807813089F461E00E94D20092
S11307C082E990E00E94BF002FEF83EC99E0215072
S11307D080409040E1F700C0000013C0811111C0B7
S11307E061E081E00E94D2008DE990E00E94BF00A8
S11307F02FEF83EC99E0215080409040E1F700C056
S113080000000E94510183EC90E00E943E0160913F
S1130810A3077091A4078091A5079091A6070E9451
S11308209E10CB010E9455012FEF83EC99E02150DB
S113083080409040E1F700C0000092CF64E670E091
S11308408091AB079091AC070E948A088130B1F780
S11308509091A80789278093A80720E040E050E002
S113086060E070E08091AB079091AC070E94F807BC
S11308704091A80763E087E00E94730180E797E155
S11308800E94FA0DDBCF64E670E08091AB07909193
S1130890AC070E948A088130E9F44091A8074827F0
S11308A04093A80763E087E00E9473012FEF84E37D
S11308B09CE0215080409040E1F700C0000020E01F
S11308C040E050E060E070E08091AB079091AC07AD
S11308D00E94F8078091A9079091AA070E94640ECC
S11308E0D2CF8091A9079091AA070E94730B089513
S11308F089EA90E00E94F10F6091A80770E080E01F
S113090090E00E940C1085EB90E00E94F10F609142
S1130910A70770E080E090E00E940C1082EC90E069
S11309200E94F10F6091A3077091A4078091A5071D
S11309309091A6070E94A5100E940C1088EC90E0EC
S11309400E94F10F84EC99E00E94FA0DD1CF88EE59
S113095093E00E94FA0D0E945C00BC01660F771FB1
S1130960660F771F680F791F072E000C880B990BF1
S11309700E94D61020E030EC4FE754E40E942C1083
S113098020E030E048EC52E40E9462116093A30737
S11309907093A4078093A5079093A60780EA9FE02D
S11309A00E94FA0DD8CF0E94A1060E940A020E945A
S11309B0D2010E9449000E94E20F0E948A000E9414
S11309C0090181E794E00E94DC0143E060E081E0FA
S11309D00E94B7079093AC078093AB0720E040E0F8
S11309E050E060E070E00E94F807E12CF12C03E095
S11309F020E030E048EC50E06BEC70E088E794E0F5
S1130A000E941A0B01E020E030E046E950E060ED7E
S1130A1070E080EB93E00E941A0B02E020E030E0EB
S1130A204BE450E064ED70E08EE194E00E941A0B18
S1130A3020E030E04BE450E068ED70E084E993E0BE
S1130A400E941A0B20E030E04BE450E06DED70E0C2
S1130A5087EA94E00E941A0B0F2EF9EAEF2EF7E0D2
S1130A60FF2EF02D20E030E04BE450E062EE70E029
S1130A7083E494E00E941A0B8091A9079091AA073D
S1130A800E94640E0E94D90BFFCF1BBC8DE38ABD6C
S1130A908BE08EBD89B7806189BF089531E1FC0187
S1130AA03083319722E220833197A3E3A0833197E7
S1130AB060833197708331971082319760E8608347
S1130AC031971082319762E06083319763E06083ED
S1130AD0319764E06083319765E06083319766E025
S1130AE06083319767E06083319768E06083319772
S1130AF069E06083319760E1608331973083319797
S1130B0032E13083319733E13083319734E13083FC
S1130B10319735E13083319736E13083319737E1CE
S1130B203083319738E13083319739E1308331971D
S1130B3030E23083319731E230833197208331972B
S1130B4023E220833197408331975083319726E203
S1130B502083319727E22083319728E2208331973D
S1130B6029E22083319720E32083319721E32083F6
S1130B70869708950E944505A0912D08B0912E08EE
S1130B80CD91CDBFDD91DEBFFF91EF91DF91CF918C
S1130B90BF91AF919F918F917F916F915F914F9191
S1130BA03F912F911F910F91FF90EF90DF90CF9085
S1130BB0BF90AF909F908F907F906F905F904F9079
S1130BC03F902F901F900F900FBE0F90089581E0DB
S1130BD008950F920FB6F8940F921F9211242F923A
S1130BE03F924F925F926F927F928F929F92AF92B9
S1130BF0BF92CF92DF92EF92FF920F931F932F93A6
S1130C003F934F935F936F937F938F939F93AF9390
S1130C10BF93CF93DF93EF93FF93A0912D08B091EF
S1130C202E080DB60D920EB60D920E94100EA091D4
S1130C302D08B0912E08CD91CDBFDD91DEBFFF917F
S1130C40EF91DF91CF91BF91AF919F918F917F9160
S1130C506F915F914F913F912F911F910F91FF9051
S1130C60EF90DF90CF90BF90AF909F908F907F9048
S1130C706F905F904F903F902F901F900F900FBEFA
S1130C800F9008950F920FB6F8940F921F921124AB
S1130C902F923F924F925F926F927F928F929F9288
S1130CA0AF92BF92CF92DF92EF92FF920F931F9376
S1130CB02F933F934F935F936F937F938F939F9360
S1130CC0AF93BF93CF93DF93EF93FF93A0912D083E
S1130CD0B0912E080DB60D920EB60D920E940B0C1B
S1130CE081110E94100EA0912D08B0912E08CD9173
S1130CF0CDBFDD91DEBFFF91EF91DF91CF91BF9129
S1130D00AF919F918F917F916F915F914F913F919F
S1130D102F911F910F91FF90EF90DF90CF90BF9094
S1130D20AF909F908F907F906F905F904F903F9087
S1130D302F901F900F900FBE0F9008950E944206AF
S1130D4018958FEF8ABB87BB84BB81ED81BB1BBA2F
S1130D5018BA15BA12BA08950FB6F8940F92FC0196
S1130D60828D811102C081E001C080E00F900FBE2E
S1130D7008950FB6F8940F92FC01228D838D2813E9
S1130D8002C081E001C080E00F900FBE08950F9370
S1130D901F93CF93DF93EC01042F1A8D4C8D4423C2
S1130DA0B9F1011116C050E08A819B810E9405129D
S1130DB02C8D8A819B81820F911D9B838A832C8138
S1130DC03D818217930720F1888199819B838A83CF
S1130DD01FC050E08E819F810E9405128C8D90E08F
S1130DE09195819591092E813F81280F391F3F8369
S1130DF02E83488159812417350730F42C813D8195
S1130E00820F931F9F838E83023011F411111150AE
S1130E101F5F1A8F80E0DF91CF911F910F9108958A
S1130E201F93CF93DF93EC010FB6F8940F921E8DAE
S1130E300BC08989882351F0CE0141960E94D70EB8
S1130E4081110E94DE0F115011169CF38FEF8E8FCB
S1130E500F900FBE0FB6F8940F921D8D0BC08885AE
S1130E60882351F0CE0108960E94D70E81110E946A
S1130E70DE0F115011169CF38FEF8D8F0F900FBE64
S1130E80DF91CF911F9108950F931F93CF93DF9319
S1130E90FC01362F892B09F44DC0238D222309F43C
S1130EA04BC0022F10E08FEF9FEFB8010E94CF11CB
S1130EB0448D842F90E06817790708F43FC0EF0150
S1130EC00FB6F8940F9260817181FB01249FE00DAD
S1130ED0F11D1124FD83EC831A8E7B836A830150F8
S1130EE01109809FA001819F500D909F500D1124E6
S1130EF0CB01840F951F9F838E838FEF8D8F8E8FF1
S1130F0031110CC08885882389F0CE0108960E948F
S1130F10D70E882359F00E94E90508C0CE0108962F
S1130F200E940903CE0141960E9409030F900FBE4F
S1130F3081E005C080E003C080E001C080E0DF9173
S1130F40CF911F910F9108950F931F93F801611191
S1130F5003C01183008302C051834083838F648F55
S1130F6061E0CF010E9444071F910F910895DF9221
S1130F70EF92FF920F931F93CF93DF93382FE62FB7
S1130F80882329F1682F70E08FEF9FEF0E94CF1123
S1130F908E2F90E068177907E8F03E9FC001112476
S1130FA0813E2FEF9207C8F4D42EDE2FC32F4F9625
S1130FB00E9429027C01009791F08C012D2DAC0137
S1130FC0415E5F4F6D2F8C2F0E94A40708C0E12C57
S1130FD0F12C05C0E12CF12C02C0E12CF12CC7014D
S1130FE0DF91CF911F910F91FF90EF90DF900895C3
S1130FF0CF92DF92EF92FF920F931F93CF93DF93E1
S113100000D000D01F92CDB7DEB78C017B015D8389
S11310104C83C22ED12C0FB6F8940F92F801928D06
S1131020838D981718F0F2E0CF1219C04C2DB70138
S1131030C8010E94C706F8019189992349F0C801A3
S113104041960E94D70E882331F00E94E90503C01F
S113105081110E94E9050F900FBE81E04DC08C8183
S11310609D81892B21F40F900FBE80E045C0D110E3
S113107006C0CE0101960E94940FDD24D3940F90F4
S11310800FBE0E94050C0FB6F8940F92F801858DDF
S11310908F3F09F4158EF801868D8F3F09F4168E63
S11310A00F900FBEBE016C5F7F4FCE0101960E9470
S11310B09F0F81111BC0C8010E94B906882381F0CB
S11310C06C817D81C80108960E94C50EC8010E94EA
S11310D010070E94250D81119ECF0E94E9059BCF28
S11310E0C8010E9410070E94250D95CFC8010E94D7
S11310F010070E94250D80E00F900F900F900F9025
S11311000F90DF91CF911F910F91FF90EF90DF909F
S1131110CF900895FF920F931F93CF93DF9300D046
S113112000D01F92CDB7DEB78C017D836C83F12C88
S11311300FB6F8940F92F801828D882381F08150C4
S1131140828F8085882339F0C80108960E94D70EC3
S113115081110E94E9050F900FBE81E053C08C817C
S11311609D81892B21F40F900FBE80E04BC0F110BC
S113117006C0CE0101960E94940FFF24F3940F90B1
S11311800FBE0E94050C0FB6F8940F92F801858DDE
S11311908F3F09F4158EF801868D8F3F09F4168E62
S11311A00F900FBEBE016C5F7F4FCE0101960E946F
S11311B09F0F81111BC0C8010E94AC06882381F0D7
S11311C06C817D81C80141960E94C50EC8010E94B0
S11311D010070E94250D8111ABCF0E94E905A8CF0D
S11311E0C8010E9410070E94250DA2CFC8010E94C9
S11311F010070E94250DC8010E94AC06882309F43B
S113120097CF80E00F900F900F900F900F90DF9189
S1131210CF911F910F91FF900895FC012285338592
S11312202C5B374059F4FC0184899589F7E08F3CA5
S11312309F0731F0892B31F080E0089580E0089514
S113124080E0089581E00895E091DA07F091DB07EA
S11312508081811107C08FEF9FEF9093B107809336
S1131260B0070895E091DA07F091DB070580F68175
S1131270E02D808191819093B1078093B007089508
S1131280CF93DF93EC018F89988D0E94C302CE0126
S11312900E94C302DF91CF9108956F927F928F9243
S11312A09F92AF92BF92CF92DF92EF920F931F93D0
S11312B0CF93DF93CDB7DEB74C01F5018789908DCD
S11312C0215031093C01620E731E6115710589F4C8
S11312D015C0822F90E0FB01E80FF91F3081D50182
S11312E0A80FB91F59963C938081882329F02F5F5A
S11312F001C020E02A3068F3F50112A2F6E0FE15E1
S113130020F40F2EF6E0EF2EF02DF501E68AC5014C
S113131002960E941703C5010C960E941703F5015B
S1131320B186A08687E090E08E199109958784871D
S1131330B38AA28AA801B401C3010E944E05F50133
S113134091838083C114D10419F0F601B182A08283
S1131350DF91CF911F910F91EF90DF90CF90BF90CD
S1131360AF909F908F907F906F900895CF93C0E03F
S113137010C08C2F90E09C01220F331F220F331FCB
S1131380220F331F820F931F8251984F0E9409032B
S1131390CF5FC73070F385EE97E00E9409038CEDB0
S11313A097E00E9409038FEC97E00E94090386EC02
S11313B097E00E9409038CEB97E00E94090385EEF5
S11313C097E09093DB078093DA078CED97E0909396
S11313D0D9078093D807CF910895CF93DF93EC0179
S11313E00FB6F8940F928091BB078F5F8093BB0771
S11313F080912D0890912E08892B59F4D0932E08B2
S1131400C0932D088091BB07813099F40E94B609DE
S113141010C08091B70781110CC0E0912D08F091A4
S11314202E0896898E89891720F0D0932E08C093B0
S11314302D088091B2078F5F8093B2078E899091B7
S1131440B807981710F48093B80790E0FC01EE0FEA
S1131450FF1FEE0FFF1FEE0FFF1F8E0F9F1FFC01DC
S1131460E251F84F0180F281E02DFD83EC83848109
S113147095819F838E83A481B581CE0102961396B4
S11314809C938E93129795838483EE89F0E0CF0129
S1131490880F991F880F991F880F991FE80FF91F4C
S11314A0E251F84FFB87EA8780818F5F80830F903A
S11314B00FBE8091B707882351F0E0912D08F09179
S11314C02E0896898E89981710F40E94E905DF91F9
S11314D0CF910895CF93DF931CC00FB6F8940F9269
S11314E0E091CB07F091CC07C681D781CE0102965B
S11314F00E946D038091BB0781508093BB0780914C
S1131500C50781508093C5070F900FBECE010E947E
S113151040098091C5078111E0CFDF91CF910895F3
S11315200E946A0A8091EE078230D0F30E94E90596
S1131530F7CFFF920F931F93CF93DF93EC01F62E17
S11315400091B9071091BA0780912D0890912E0847
S113155002960E946D03CF3F8FEFD807B1F5FF20AD
S1131560A1F1ECEBF7E0A181B281C0912D08D091FB
S11315702E08BD83AC83C0912D08D0912E081496FB
S11315808D919C9115979F838E831496CD91DC91B8
S1131590159780912D0890912E0802969B838A833B
S11315A080912D0890912E08029615969C938E9307
S11315B01497A0912D08B0912E081B96FC93EE93DE
S11315C01A9780818F5F80832FC0C00FD11FE09155
S11315D02D08F0912E08D383C283C017D10768F475
S11315E060912D0870912E088091D8079091D907A9
S11315F06E5F7F4F0E943C0317C060912D0870916D
S11316002E088091DA079091DB076E5F7F4F0E946E
S11316103C038091B0079091B107C817D90720F413
S1131620D093B107C093B007DF91CF911F910F9171
S1131630FF9008952F923F924F925F926F927F9204
S11316408F929F92AF92BF92CF92DF92EF92FF92CE
S11316500F931F93CF93DF933C011B015A01290180
S1131660CA010E9429026C01892B99F088E290E05A
S11316700E942902EC01892B41F088E2FE011192BB
S11316808A95E9F7D88ECF8A06C0C6010E94C302A4
S113169002C0C0E0D0E0209791F0950140E050E016
S11316A0812C912C5E016701E02E8201B101C301FE
S11316B00E944D09CE010E94ED0981E001C08FEF27
S11316C0DF91CF911F910F91FF90EF90DF90CF901A
S11316D0BF90AF909F908F907F906F905F904F904E
S11316E03F902F9008950F931F93CF93DF932091F2
S11316F02D0830912E088217930709F455C00097DE
S113170009F452C0EC010FB6F8940F920E940D092F
S1131710882309F447C08E010E5F1F4FC8010E9441
S11317206D038E899091B807981710F48093B807C9
S113173090E0FC01EE0FFF1FEE0FFF1FEE0FFF1FE7
S11317408E0F9F1FFC01E251F84F0180F281E02DC2
S1131750FD83EC83848195819F838E83A481B581ED
S113176013961C930E93129715830483EE89F0E06D
S1131770CF01880F991F880F991F880F991FE80FB1
S1131780F91FE251F84FFB87EA8780818F5F8083DE
S11317909E89E0912D08F0912E088689981710F003
S11317A00E94E9050F900FBEDF91CF911F910F9119
S11317B00895EF92FF920F930F2EFEEAEF2EF7E0BB
S11317C0FF2EF02D00E020E030E04CE251E06EEE20
S11317D070E080E99AE00E941A0B813081F4F89459
S11317E08FEF9FEF9093B1078093B00781E08093D0
S11317F0B7071092BA071092B9070E94BA058091F0
S113180062000F91FF90EF9008958091AD078F5F74
S11318108093AD0708950F931F93CF93DF93809127
S1131820AD07811101C1C091B907D091BA078E01EA
S11318300F5F1F4F1093BA070093B90701151105E5
S1131840B9F48091DA079091DB072091D8073091A1
S1131850D9073093DB072093DA079093D907809355
S1131860D8078091B3078F5F8093B3070E94240940
S11318708091B0079091B1070817190720F480E010
S1131880B8C081E001C080E0E091DA07F091DB07A5
S11318909081911107C02FEF3FEF3093B107209350
S11318A0B007A7C0E091DA07F091DB070580F68165
S11318B0E02D0680F781E02D228133810217130782
S11318C028F43093B1072093B00793C0A285B38561
S11318D02481358146815781E9015D834C832681CA
S11318E0378144815581E9015B834A8311962D91A7
S11318F03C911297AF014E5F5F4F2417350731F4C7
S11319002681378112963C932E9311971386128663
S11319109C9191509C93A489B589109719F12685BF
S1131920378560897189E9017D836C8320893189D8
S113193066857785E9017B836A8311966D917C9135
S113194012979F01245F3F4F6217730731F4208978
S1131950318912963C932E931197158A148A9C917F
S113196091509C9326899091B807921710F4209374
S1131970B80730E0D901AA0FBB1FAA0FBB1FAA0FDB
S1131980BB1F2A0F3B1FD901A251B84F11960D90CE
S1131990BC91A02DB583A48314962D913C911597E9
S11319A03783268314962D913C911597E9015B8327
S11319B04A8315965C934E931497A689B0E09D01D3
S11319C0220F331F220F331F220F331FA20FB31F07
S11319D0A251B84FB387A2879C919F5F9C9326899D
S11319E0E0912D08F0912E089689921708F449CFBA
S11319F04BCFE0912D08F0912E08268930E0F901B3
S1131A00EE0FFF1FEE0FFF1FEE0FFF1F2E0F3F1FE6
S1131A10F901E251F84F9081923008F081E0909101
S1131A20B40791110CC00CC08091B5079091B60712
S1131A3001969093B6078093B50780E001C081E0DA
S1131A40DF91CF911F910F910895CF93DF930FB63C
S1131A50F8940F928091AD0781508093AD078091E7
S1131A60AD078111BFC08091BB07811196C0BDC075
S1131A70E091D407F091D5070680F781E02DA48981
S1131A80B589C685D785808991899D838C83C089D2
S1131A90D189868597859B838A8311962D913C9164
S1131AA01297CF010C962817390731F48089918950
S1131AB012969C938E931197158A148A8C91815057
S1131AC08C93A285B385C481D581868197819D83BA
S1131AD08C83C681D781848195819B838A83119667
S1131AE08D919C9112979F012E5F3F4F8217930710
S1131AF031F48681978112969C938E931197138665
S1131B0012868C9181508C9386899091B80798178E
S1131B1010F48093B80790E0DC01AA0FBB1FAA0F52
S1131B20BB1FAA0FBB1F8A0F9B1FDC01A251B84F1A
S1131B3011960D90BC91A02DB583A48314968D911C
S1131B409C911597978386831496CD91DC91159774
S1131B503B832A8315963C932E931497A689B0E071
S1131B60CD01880F991F880F991F880F991FA80FFF
S1131B70B91FA251B84FB387A2878C918F5F8C9302
S1131B809689A0912D08B0912E0856968C9198179D
S1131B9030F081E08093B40702C0E0E0F0E080918F
S1131BA0CF07811165CFEF2B11F00E942409C0915A
S1131BB0B507D091B607209769F00E940B0C8823D3
S1131BC019F081E08093B4072197B9F71092B60712
S1131BD01092B5078091B407882331F00E94E9057B
S1131BE081E003C080E001C080E00F900FBEDF9170
S1131BF0CF910895CF93DF93EC01892B49F00E9494
S1131C00050C60E0CE010E94990A0E94250D01C0D6
S1131C1080E0811102C00E94E905DF91CF9108950F
S1131C208091AD07882321F081E08093B407089563
S1131C301092B4072091B80701C02150822F90E080
S1131C40FC01EE0FFF1FEE0FFF1FEE0FFF1FE80F4B
S1131C50F91FE251F84F3081332379F3AC01440F7B
S1131C60551F440F551F440F551F480F591FDF01BF
S1131C700180F281E02D0280F381E02D1296FC9325
S1131C80EE9311974F50584FE417F50729F442810A
S1131C905381FD0152834183FC01EE0FFF1FEE0FC0
S1131CA0FF1FEE0FFF1F8E0F9F1FFC01E251F84F25
S1131CB00180F281E02D8681978190932E08809394
S1131CC02D082093B80708950F931F93CF93DF93A4
S1131CD0EC010FB6F8940F92892B21F4C0912D08D2
S1131CE0D0912E088E010E5F1F4FC8010E946D0314
S1131CF08C899D89892B21F0CE010C960E946D035D
S1131D00B8018CEB97E00E941B0380E00FC0282FE2
S1131D10082E000C330BFE01E20FF31F97A1913044
S1131D2021F4FE01E20FF31F17A28F5F18167CF750
S1131D300F900FBE8091B707882339F00FB6F8943F
S1131D400F920E9424090F900FBE80912D0890914C
S1131D502E08C817D907A1F48091B707882319F072
S1131D600E94E9050DC09091BC078091BB079813B0
S1131D7005C010922E0810922D0802C00E94100E69
S1131D80DF91CF911F910F910895CF93DF93EB01D2
S1131D9060912D0870912E08645F7F4F0E943C0370
S1131DA061E0CE010E94990ADF91CF910895CF930B
S1131DB0DF93DC011596ED91FC9116970680F7816F
S1131DC0E02DA489B589C685D785808991899D83AD
S1131DD08C83C089D189868597859B838A83119654
S1131DE08D919C9112979F01245F3F4F8217930717
S1131DF031F48089918912969C938E931197158A58
S1131E00148A8C9181508C938091AD07811160C0AC
S1131E10A285B385C481D581868197819D838C8376
S1131E20C681D781848195819B838A8311968D9104
S1131E309C9112979F012E5F3F4F8217930731F4B5
S1131E408681978112969C938E931197138612869E
S1131E508C9181508C9386899091B807981710F4CF
S1131E608093B80790E0DC01AA0FBB1FAA0FBB1F29
S1131E70AA0FBB1F8A0F9B1FDC01A251B84F1196FA
S1131E800D90BC91A02DB583A48314968D919C9143
S1131E901597978386831496CD91DC9115973B8390
S1131EA02A8315963C932E931497A689B0E0CD010E
S1131EB0880F991F880F991F880F991FA80FB91FA2
S1131EC0A251B84FB387A2878C918F5F8C931CC0AB
S1131ED04FEC57E0DA011196CD91DC911297D78738
S1131EE0C6878C819D81918B808B8C819D81DC0147
S1131EF013963C932E9312973D832C83558B448BDE
S1131F00DA018C918F5F8C939689E0912D08F09182
S1131F102E088689891720F481E08093B40701C0D4
S1131F2080E0DF91CF9108952091B307FC012083D5
S1131F302091B9073091BA073283218308951F9302
S1131F40CF93DF930FB6F8940F92E091B907F09115
S1131F50BA07DC0111964D915C911297DF01A41B25
S1131F60B50BEB01288139812F3FDFEF3D07F9F0F5
S1131F70EC011881C091B3071C1741F0E417F50771
S1131F8028F0FB011182108281E012C0A217B3076E
S1131F9048F4FB012A1B3B0B318320830E94940FDE
S1131FA080E006C0DB011D921C9281E001C080E04C
S1131FB00F900FBEDF91CF911F91089581E0809320
S1131FC0B407089586E880BD83E389B98AB188603F
S1131FD08AB98AB180618AB908955D9BFECF8CB9B4
S1131FE008950F931F93CF938C01FC0180810E946D
S1131FF0ED0FC0E007C0CF5FF801EC0FF11D808149
S11320000E94ED0FF801EC0FF11D80818111F3CFD7
S1132010CF911F910F910895CF936115710581059B
S1132020910521F480E30E94ED0F14C06115710540
S11320308105910579F02AE030E040E050E00E940B
S1132040E311C62FCA01B9010E940C1080E38C0F62
S11320500E94ED0FCF9108950E9440100C94281116
S11320600E94211158F00E941A1140F029F45F3F98
S113207029F00C94111151110C945C110C9417114A
S11320800E94391168F39923B1F3552391F3951BF9
S1132090550BBB27AA2762177307840738F09F5F85
S11320A05F4F220F331F441FAA1FA9F335D00E2EF2
S11320B03AF0E0E832D091505040E695001CCAF75F
S11320C02BD0FE2F29D0660F771F881FBB1F261722
S11320D037074807AB07B0E809F0BB0B802DBF01F9
S11320E0FF2793585F4F3AF09E3F510578F00C94C8
S11320F011110C945C115F3FE4F3983ED4F3869580
S113210077956795B795F7959F5FC9F7880F911DE8
S11321109695879597F90895E1E0660F771F881FD4
S1132120BB1F621773078407BA0720F0621B730B87
S1132130840BBA0BEE1F88F7E09508950E94A51052
S11321406894B1110C945C1108950E94411188F0B7
S11321509F5798F0B92F9927B751B0F0E1F0660F67
S1132160771F881F991F1AF0BA95C9F714C0B130A8
S113217091F00E945B11B1E008950C945B11672FFC
S1132180782F8827B85F39F0B93FCCF386957795D7
S11321906795B395D9F73EF49095809570956195C0
S11321A07F4F8F4F9F4F0895E89409C097FB3EF4EB
S11321B090958095709561957F4F8F4F9F4F992390
S11321C0A9F0F92F96E9BB279395F695879577950E
S11321D06795B795F111F8CFFAF4BB0F11F460FFCE
S11321E01BC06F5F7F4F8F4F9F4F16C0882311F026
S11321F096E911C0772321F09EE8872F762F05C03A
S1132200662371F096E8862F70E060E02AF09A95D4
S1132210660F771F881FDAF7880F9695879597F9C9
S1132220089597F99F6780E870E060E008959FEF54
S113223080EC089500240A94161617061806090659
S1132240089500240A941216130614060506089528
S1132250092E0394000C11F4882352F0BB0F40F4B0
S1132260BF2B11F460FF04C06F5F7F4F8F4F9F4FF0
S1132270089557FD9058440F551F59F05F3F71F072
S11322804795880F97FB991F61F09F3F79F08795D9
S11322900895121613061406551FF2CF4695F1DF62
S11322A008C0161617061806991FF1CF86957105F2
S11322B0610508940895E894BB2766277727CB0126
S11322C097F908950E9475110C9428110E941A110F
S11322D038F00E94211120F0952311F00C94111173
S11322E00C94171111240C945C110E94391170F391
S11322F0959FC1F3950F50E0551F629FF001729FA7
S1132300BB27F00DB11D639FAA27F00DB11DAA1FB5
S1132310649F6627B00DA11D661F829F2227B00D02
S1132320A11D621F739FB00DA11D621F839FA00D8D
S1132330611D221F749F3327A00D611D231F849FDD
S1132340600D211D822F762F6A2F11249F57504034
S11323509AF0F1F088234AF0EE0FFF1FBB1F661FAF
S1132360771F881F91505040A9F79E3F510580F078
S11323700C9411110C945C115F3FE4F3983ED4F378
S1132380869577956795B795F795E7959F5FC1F71C
S1132390FE2B880F911D9695879597F90895AA1B92
S11323A0BB1B51E107C0AA1FBB1FA617B70710F03C
S11323B0A61BB70B881F991F5A95A9F7809590956E
S11323C0BC01CD010895A1E21A2EAA1BBB1BFD017D
S11323D00DC0AA1FBB1FEE1FFF1FA217B307E40700
S11323E0F50720F0A21BB30BE40BF50B661F771F58
S11323F0881F991F1A9469F7609570958095909538
S11324009B01AC01BD01CF010895FB01DC0102C0B9
S113241001900D9241505040D8F70895453251052E
S113242020F4423010F00C941912FB011082CB01FD
S11324300895BB274A3031F4992322F4BDE29095E4
S113244081959F4F0C942512BB27FB015527AA2782
S1132450880F991FAA1FA41710F0A41B839550512D
S1132460B9F7A05DAA3308F0A95DA193009779F7A5
S1132470B111B1931192CB010C943E12DC01FC0119
S1132480672F71917723E1F7329704C07C916D93A4
S113249070836291AE17BF07C8F30895F894FFCF15
S11324A0A3060639003600330030003B00380035FF
S11324B0003200446F6F7220697320436C6F736540
S11324C0642000446F6F72206973204F70656E2022
S11324D02E006C4544206973204F6E20006C4544E7
S11324E0206973204F666620000C206C45442069E7
S11324F073203D20002C20446F6F72206973203DAF
S113250020002C54203D20000A0D00554152540057
S11325104C4344004C454400446F6F720054656D55
S11325207000507573685F427574746F6E0049442F
S10725304C45000012
S9030000FC
