S00C00005461736B2E7372656385
S11300000C942A000C9447000C9447000C9447006D
S11300100C9447000C9447000C9447000C947E0405
S11300200C9447000C9447000C9447000C94470030
S11300300C9447000C9447000C9447000C94470020
S11300400C9447000C9447000C9447000C94470010
S11300500C94470011241FBECFE5D8E0DEBFCDBF0E
S113006010E0A0E6B0E0E6E9F9E102C005900D92E7
S1130070AC3AB107D9F726E0ACEAB0E001C01D9272
S1130080A73FB207E1F70E94E1020C94C90C0C945B
S11300900000CF93C82F40E061E080E00E94C000E0
S11300A040E061E081E00E94C0006C2F80E00E948B
S11300B0E60041E061E082E00E94C0008FE99FE039
S11300C00197F1F700C0000040E061E082E00E9487
S11300D0C000CF9108952FEF89EF90E02150804028
S11300E09040E1F700C0000088E30E9449008CE0E2
S11300F00E94490081E00E9449000895CF93C82FCF
S113010041E061E080E00E94C00040E061E081E005
S11301100E94C0006C2F80E00E94E60041E061E094
S113012082E00E94C0008FE99FE00197F1F700C0D0
S1130130000040E061E082E00E94C000CF91089599
S11301400F931F93CF938C01C0E003C00E947E00E5
S1130150CF5FF801EC0FF11D80818111F7CFCF91B2
S11301601F910F91089590E4899F600D1124862FAB
S113017080580E944900089581E00E944900089532
S1130180883000F5643000F5E62FF0E0EE0FFF1F35
S1130190ED59FF4F0190F081E02D908121E030E096
S11301A0082E02C0220F331F0A94E2F750E002C067
S11301B0440F551F8A95E2F720952923422B40834B
S11301C081E0089580E0089580E00895843060F42B
S11301D0E82FF0E0EE0FFF1FED59FF4F0190F08183
S11301E0E02D608381E0089580E00895A1EBB0E004
S11301F0E5EBF0E01196FC93EE9313961C921E929D
S11302001297ADEAB0E08BED95E013969C938E9334
S1130210129711961C921E9293838283B183A083BA
S11302200895EF92FF920F931F93CF93DF93EC0106
S11302300E943D098091AC00811105C00E94F60026
S113024081E08093AC00209741F0CB3F8FEFD8073B
S113025010F4259602C0C0E0D0E0DD230CF466C0A3
S1130260209709F466C020916000309161002C173A
S11302703D0708F461C0E091B100F091B200A1EB38
S1130280B0E002C0DF01FC01828193818C179D07DD
S113029020F4808191810097A9F780E0ED3AF80776
S11302A009F44DC00D911C9111970C5F1F4F808173
S11302B091818D939C93828193818C1B9D0B8930BA
S11302C0910530F1BF016C0F7D1FDB0113969C93E8
S11302D08E931297D383C28312964D915C91139798
S11302E00F2EF1EBEF2EF0E0FF2EF02D01C07D017B
S11302F0E701A881B98112968D919C911397841777
S11303009507A8F3EB01B983A883D7016D937C9378
S113031082819381281B390B309361002093600004
S1130320906893838283118210820BC000E010E0F6
S113033008C000E010E005C000E010E002C000E0EA
S113034010E00E945D0AC801DF91CF911F910F91C7
S1130350FF90EF900895EF92FF920F931F93CF9326
S1130360DF930097B9F1EC0124972A813B81332371
S11303708CF548815981452B69F58C013F773B8386
S11303802A830E943D092A813B8141EB50E001C050
S1130390AF01DA01ED91FC91828193818217930779
S11303A0B8F3C8010497DC011196FC93EE93FA01AB
S11303B0D183C08312968D919C91139720916000F4
S11303C030916100820F931F9093610080936000CD
S11303D00E945D0ADF91CF911F910F91FF90EF90E2
S11303E00895FC010396928381832FEF3FEF3483BA
S11303F02383968385839087878310820895FC01E5
S1130400118610860895CF93DF93EB0148815981BB
S11304104F3F2FEF520721F4FC01A781B0850DC097
S1130420DC01139601C0DF011296ED91FC91139744
S11304302081318142175307B0F71296ED91FC9158
S11304401397FB83EA83D583C483BD83AC8313965C
S1130450DC93CE93129799878887FC0120812F5FC4
S11304602083DF91CF910895CF93DF93FC01A08582
S1130470B185C281D381848195819D838C83C4811C
S1130480D581828193819B838A8311968D919C91DE
S11304901297E817F90731F48481958112969C9399
S11304A08E931197118610868C9181508C938C9128
S11304B0DF91CF91089520E040E050E060E070E0EB
S11304C080919706909198060E94EE0564E670E08C
S11304D080919706909198060E9480068130B1F72A
S11304E00E94BC008BE690E00E94A0002FEF83EDF9
S11304F090E3215080409040E1F700C0000020E0EC
S113050040E050E060E070E080919706909198069A
S11305100E94EE0584EF91E00E94320BD7CF64E68F
S113052070E080919706909198060E948006813031
S1130530B1F70E94BC0089E790E00E94A0002FEF71
S113054083ED90E3215080409040E1F700C000002B
S113055020E040E050E060E070E0809197069091E8
S113056098060E94EE0584EF91E00E94320BD7CFEB
S113057064E670E080919706909198060E94800648
S11305808130B1F70E94BC0087E890E00E94A0008F
S11305902FEF83ED90E3215080409040E1F700C0BD
S11305A0000020E040E050E060E070E080919706B9
S11305B0909198060E94EE0584EF91E00E94320B20
S11305C0D7CF0E9481040E946B0060E081E00E940A
S11305D0B30060E082E00E94D8059093980680936F
S11305E097060F2EF5E9EF2EF6E0FF2EF02D01E031
S11305F020E030E044E650E065E970E08BE592E00D
S11306000E94B8080F2EF3E9EF2EF6E0FF2EF02D2E
S113061020E030E044E650E06BE970E08FE892E0DF
S11306200E94B8080F2EF1E9EF2EF6E0FF2EF02D10
S113063020E030E044E650E061EA70E088EB92E0CC
S11306400E94B8080E941109FFCF1BBC8CE78ABD29
S11306508BE08EBD89B7806189BF089531E1FC01CB
S11306603083319722E220833197A3E3A08331972B
S113067060833197708331971082319760E860838B
S113068031971082319762E06083319763E0608331
S1130690319764E06083319765E06083319766E069
S11306A06083319767E06083319768E060833197B6
S11306B069E06083319760E16083319730833197DB
S11306C032E13083319733E13083319734E1308341
S11306D0319735E13083319736E13083319737E113
S11306E03083319738E13083319739E13083319762
S11306F030E23083319731E2308331972083319770
S113070023E220833197408331975083319726E247
S11307102083319727E22083319728E22083319781
S113072029E22083319720E32083319721E320833A
S1130730869708950E942503A091F506B091F606C8
S1130740CD91CDBFDD91DEBFFF91EF91DF91CF91D0
S1130750BF91AF919F918F917F916F915F914F91D5
S11307603F912F911F910F91FF90EF90DF90CF90C9
S1130770BF90AF909F908F907F906F905F904F90BD
S11307803F902F901F900F900FBE0F90089581E01F
S113079008950F920FB6F8940F921F9211242F927E
S11307A03F924F925F926F927F928F929F92AF92FD
S11307B0BF92CF92DF92EF92FF920F931F932F93EA
S11307C03F934F935F936F937F938F939F93AF93D5
S11307D0BF93CF93DF93EF93FF93A091F506B0916E
S11307E0F6060DB60D920EB60D920E94480BA0911E
S11307F0F506B091F606CD91CDBFDD91DEBFFF9138
S1130800EF91DF91CF91BF91AF919F918F917F91A4
S11308106F915F914F913F912F911F910F91FF9095
S1130820EF90DF90CF90BF90AF909F908F907F908C
S11308306F905F904F903F902F901F900F900FBE3E
S11308400F9008950F920FB6F8940F921F921124EF
S11308502F923F924F925F926F927F928F929F92CC
S1130860AF92BF92CF92DF92EF92FF920F931F93BA
S11308702F933F934F935F936F937F938F939F93A4
S1130880AF93BF93CF93DF93EF93FF93A091F506BC
S1130890B091F6060DB60D920EB60D920E94430964
S11308A081110E94480BA091F506B091F606CD91F6
S11308B0CDBFDD91DEBFFF91EF91DF91CF91BF916D
S11308C0AF919F918F917F916F915F914F913F91E4
S11308D02F911F910F91FF90EF90DF90CF90BF90D9
S11308E0AF909F908F907F906F905F904F903F90CC
S11308F02F901F900F900FBE0F9008950E94220416
S113090018958FEF8ABB9FE797BB84BB11BA1BBABC
S113091018BA15BA12BA08950FB6F8940F92FC01DA
S1130920828D811102C081E001C080E00F900FBE72
S113093008950FB6F8940F92FC01228D838D28132D
S113094002C081E001C080E00F900FBE08950F93B4
S11309501F93CF93DF93EC01042F1A8D4C8D442306
S1130960B9F1011116C050E08A819B810E94C00C2C
S11309702C8D8A819B81820F911D9B838A832C817C
S11309803D818217930720F1888199819B838A8313
S11309901FC050E08E819F810E94C00C8C8D90E01E
S11309A09195819591092E813F81280F391F3F83AD
S11309B02E83488159812417350730F42C813D81D9
S11309C0820F931F9F838E83023011F411111150F3
S11309D01F5F1A8F80E0DF91CF911F910F910895CF
S11309E01F93CF93DF93EC010FB6F8940F921E8DF3
S11309F00BC08989882351F0CE0141960E94AE0B29
S1130A0081110E94A80C115011169CF38FEF8E8F48
S1130A100F900FBE0FB6F8940F921D8D0BC08885F2
S1130A20882351F0CE0108960E94AE0B81110E94DA
S1130A30A80C115011169CF38FEF8D8F0F900FBEE1
S1130A40DF91CF911F9108950F931F93CF93DF935D
S1130A50FC01362F892B09F44DC0238D222309F480
S1130A604BC0022F10E08FEF9FEFB8010E94AC0C37
S1130A70448D842F90E06817790708F43FC0EF0194
S1130A800FB6F8940F9260817181FB01249FE00DF1
S1130A90F11D1124FD83EC831A8E7B836A8301503C
S1130AA01109809FA001819F500D909F500D11242A
S1130AB0CB01840F951F9F838E838FEF8D8F8E8F35
S1130AC031110CC08885882389F0CE0108960E94D4
S1130AD0AE0B882359F00E94C90308C0CE010896C2
S1130AE00E94F101CE0141960E94F1010F900FBEC8
S1130AF081E005C080E003C080E001C080E0DF91B8
S1130B00CF911F910F9108950F931F93F8016111D5
S1130B1003C01183008302C051834083838F648F99
S1130B2061E0CF010E9424051F910F910895DF9287
S1130B30EF92FF920F931F93CF93DF93382FE62FFB
S1130B40882329F1682F70E08FEF9FEF0E94AC0C8F
S1130B508E2F90E068177907E8F03E9FC0011124BA
S1130B60813E2FEF9207C8F4D42EDE2FC32F4F9669
S1130B700E9411017C01009791F08C012D2DAC0194
S1130B80415E5F4F6D2F8C2F0E94840508C0E12CBD
S1130B90F12C05C0E12CF12C02C0E12CF12CC70191
S1130BA0DF91CF911F910F91FF90EF90DF90089507
S1130BB0CF93882361F0861768F0C62F42E060E087
S1130BC00E949705009741F0FC01C28F05C080E0A8
S1130BD090E002C080E090E0CF910895CF92DF9240
S1130BE0EF92FF920F931F93CF93DF9300D000D027
S1130BF01F92CDB7DEB78C017B015D834C83C22E7F
S1130C00D12C0FB6F8940F92F801928D838D98171A
S1130C1018F0F2E0CF1219C04C2DB701C8010E94A0
S1130C20A704F8019189992349F0C80141960E94CB
S1130C30AE0B882331F00E94C90303C081110E94C6
S1130C40C9030F900FBE81E04DC08C819D81892B1B
S1130C5021F40F900FBE80E045C0D11006C0CE0134
S1130C6001960E946B0CDD24D3940F900FBE0E945A
S1130C703D090FB6F8940F92F801858D8F3F09F462
S1130C80158EF801868D8F3F09F4168E0F900FBED6
S1130C90BE016C5F7F4FCE0101960E94760C8111DC
S1130CA01BC0C8010E949904882381F06C817D8156
S1130CB0C80108960E949C0BC8010E94F0040E947F
S1130CC05D0A81119ECF0E94C9039BCFC8010E9477
S1130CD0F0040E945D0A95CFC8010E94F0040E94AE
S1130CE05D0A80E00F900F900F900F900F90DF91AE
S1130CF0CF911F910F91FF90EF90DF90CF900895C7
S1130D00FF920F931F93CF93DF9300D000D01F92D5
S1130D10CDB7DEB78C017D836C83F12C0FB6F894CC
S1130D200F92F801828D882381F08150828F808513
S1130D30882339F0C80108960E94AE0B81110E94E5
S1130D40C9030F900FBE81E053C08C819D81892B14
S1130D5021F40F900FBE80E04BC0F11006C0CE010D
S1130D6001960E946B0CFF24F3940F900FBE0E9417
S1130D703D090FB6F8940F92F801858D8F3F09F461
S1130D80158EF801868D8F3F09F4168E0F900FBED5
S1130D90BE016C5F7F4FCE0101960E94760C8111DB
S1130DA01BC0C8010E948C04882381F06C817D8162
S1130DB0C80141960E949C0BC8010E94F0040E9445
S1130DC05D0A8111ABCF0E94C903A8CFC8010E945C
S1130DD0F0040E945D0AA2CFC8010E94F0040E94A0
S1130DE05D0AC8010E948C04882309F497CF80E02F
S1130DF00F900F900F900F900F90DF91CF911F9154
S1130E000F91FF900895E091BD06F091BE06808198
S1130E10811107C08FEF9FEF90939D0680939C06EE
S1130E200895E091BD06F091BE060580F681E02D9F
S1130E308081918190939D0680939C060895CF9321
S1130E40DF93EC018F89988D0E94AB01CE010E9443
S1130E50AB01DF91CF9108956F927F928F929F9211
S1130E60AF92BF92CF92DF92EF920F931F93CF93E3
S1130E70DF93CDB7DEB74C01F5018789908D215002
S1130E8031093C01620E731E6115710589F415C0A8
S1130E90822F90E0FB01E80FF91F3081D501A80FE4
S1130EA0B91F59963C938081882329F02F5F01C094
S1130EB020E0283068F3F50110A2F3E0FE1520F4D9
S1130EC00F2EF3E0EF2EF02DF501E68AC501029610
S1130ED00E94FF01C5010C960E94FF01F501B18635
S1130EE0A08684E090E08E19910995878487B38A5F
S1130EF0A28AA801B401C3010E942E03F5019183C3
S1130F008083C114D10419F0F601B182A082DF916B
S1130F10CF911F910F91EF90DF90CF90BF90AF9042
S1130F209F908F907F906F900895CF93C0E010C0F2
S1130F308C2F90E09C01220F331F220F331F220FAE
S1130F40331F820F931F8F52994F0E94F101CF5F7D
S1130F50C43070F388EC96E00E94F1018FEB96E0C8
S1130F600E94F10182EB96E00E94F10189EA96E089
S1130F700E94F10188EC96E09093BE068093BD0632
S1130F808FEB96E09093BC068093BB06CF910895B7
S1130F90CF93DF93EC010FB6F8940F928091A706DC
S1130FA08F5F8093A7068091F5069091F606892BB2
S1130FB059F4D093F606C093F5068091A7068130C4
S1130FC099F40E94950710C08091A30681110CC06A
S1130FD0E091F506F091F60696898E89891720F03E
S1130FE0D093F606C093F50680919E068F5F80939A
S1130FF09E068E899091A406981710F48093A406F7
S113100090E0FC01EE0FFF1FEE0FFF1FEE0FFF1F1E
S11310108E0F9F1FFC01EF52F94F0180F281E02DEA
S1131020FD83EC83848195819F838E83A481B58124
S1131030CE01029613969C938E9312979583848384
S1131040EE89F0E0CF01880F991F880F991F880F50
S1131050991FE80FF91FEF52F94FFB87EA87808148
S11310608F5F80830F900FBE8091A306882351F079
S1131070E091F506F091F60696898E89981710F49A
S11310800E94C903DF91CF910895CF93DF931CC0D1
S11310900FB6F8940F92E091AE06F091AF06C681B8
S11310A0D781CE0102960E9434028091A706815016
S11310B08093A7068091A80681508093A8060F907C
S11310C00FBECE010E941F078091A8068111E0CFB8
S11310D0DF91CF9108950E9445088091D106823016
S11310E0D0F30E94C903F7CF0F931F93CF93DF93DD
S11310F0EC010091A5061091A6068091F506909149
S1131100F60602960E943402C00FD11FE091F50644
S1131110F091F606D383C283C017D10768F46091B7
S1131120F5067091F6068091BB069091BC066E5F41
S11311307F4F0E94030217C06091F5067091F60676
S11311408091BD069091BE066E5F7F4F0E940302A0
S113115080919C0690919D06C817D90720F4D093DE
S11311609D06C0939C06DF91CF911F910F91089526
S11311702F923F924F925F926F927F928F929F92A3
S1131180AF92BF92CF92DF92EF92FF920F931F9391
S1131190CF93DF933C011B015A012901CA010E942C
S11311A011016C01892B99F086E290E00E941101F3
S11311B0EC01892B41F086E2FE0111928A95E9F750
S11311C0D88ECF8A06C0C6010E94AB0102C0C0E01F
S11311D0D0E0209791F0950140E050E0812C912CD3
S11311E05E016701E02E8201B101C3010E942C0758
S11311F0CE010E94C80781E001C08FEFDF91CF913B
S11312001F910F91FF90EF90DF90CF90BF90AF9020
S11312109F908F907F906F905F904F903F902F9012
S11312200895EF92FF920F930F2EFAE9EF2EF6E056
S1131230FF2EF02D00E020E030E040E253E067EACA
S113124070E08BE698E00E94B808813081F4F8944D
S11312508FEF9FEF90939D0680939C0681E080938F
S1131260A3061092A6061092A5060E949A038091E6
S113127062000F91FF90EF900895809199068F5F1F
S11312808093990608950F931F93CF93DF938091D2
S11312909906811101C1C091A506D091A6068E01BF
S11312A00F5F1F4F1093A6060093A50601151105A5
S11312B0B9F48091BD069091BE062091BB06309191
S11312C0BC063093BE062093BD069093BC06809363
S11312D0BB0680919F068F5F80939F060E94030741
S11312E080919C0690919D060817190720F480E0D0
S11312F0B8C081E001C080E0E091BD06F091BE0677
S11313009081911107C02FEF3FEF30939D062093FA
S11313109C06A7C0E091BD06F091BE060580F6814B
S1131320E02D0680F781E02D228133810217130717
S113133028F430939D0620939C0693C0A285B38520
S11313402481358146815781E9015D834C8326815F
S1131350378144815581E9015B834A8311962D913C
S11313603C911297AF014E5F5F4F2417350731F45C
S11313702681378112963C932E93119713861286F9
S11313809C9191509C93A489B589109719F1268555
S1131390378560897189E9017D836C83208931896E
S11313A066857785E9017B836A8311966D917C91CB
S11313B012979F01245F3F4F6217730731F420890E
S11313C0318912963C932E931197158A148A9C9115
S11313D091509C9326899091A406921710F420931F
S11313E0A40630E0D901AA0FBB1FAA0FBB1FAA0F86
S11313F0BB1F2A0F3B1FD901AF52B94F11960D9055
S1131400BC91A02DB583A48314962D913C9115977E
S11314103783268314962D913C911597E9015B83BC
S11314204A8315965C934E931497A689B0E09D0168
S1131430220F331F220F331F220F331FA20FB31F9C
S1131440AF52B94FB387A2879C919F5F9C93268923
S1131450E091F506F091F6069689921708F449CFC3
S11314604BCFE091F506F091F606268930E0F901BC
S1131470EE0FFF1FEE0FFF1FEE0FFF1F2E0F3F1F7C
S1131480F901EF52F94F9081923008F081E0909188
S1131490A00691110CC00CC08091A1069091A206E7
S11314A001969093A2068093A10680E001C081E09A
S11314B0DF91CF911F910F910895CF93DF930FB6D2
S11314C0F8940F92809199068150809399068091A7
S11314D099068111BFC08091A706811196C0BDC035
S11314E0E091B706F091B8060680F781E02DA48953
S11314F0B589C685D785808991899D838C83C08968
S1131500D189868597859B838A8311962D913C91F9
S11315101297CF010C962817390731F480899189E5
S113152012969C938E931197158A148A8C918150EC
S11315308C93A285B385C481D581868197819D834F
S11315408C83C681D781848195819B838A831196FC
S11315508D919C9112979F012E5F3F4F82179307A5
S113156031F48681978112969C938E9311971386FA
S113157012868C9181508C9386899091A406981739
S113158010F48093A40690E0DC01AA0FBB1FAA0FFD
S1131590BB1FAA0FBB1F8A0F9B1FDC01AF52B94FA1
S11315A011960D90BC91A02DB583A48314968D91B2
S11315B09C911597978386831496CD91DC9115970A
S11315C03B832A8315963C932E931497A689B0E007
S11315D0CD01880F991F880F991F880F991FA80F95
S11315E0B91FAF52B94FB387A2878C918F5F8C9389
S11315F09689A091F506B091F60656968C919817A7
S113160030F081E08093A00602C0E0E0F0E0809139
S1131610B206811165CFEF2B11F00E940307C09130
S1131620A106D091A206209769F00E94430988235D
S113163019F081E08093A0062197B9F71092A206D1
S11316401092A1068091A006882331F00E94C9035C
S113165081E003C080E001C080E00F900FBEDF9105
S1131660CF910895CF93DF93EC01892B49F00E9429
S11316703D0960E0CE010E9474080E945D0A01C029
S113168080E0811102C00E94C903DF91CF910895C7
S113169080919906882321F081E08093A006089523
S11316A01092A0062091A40601C02150822F90E040
S11316B0FC01EE0FFF1FEE0FFF1FEE0FFF1FE80FE1
S11316C0F91FEF52F94F3081332379F3AC01440F02
S11316D0551F440F551F440F551F480F591FDF0155
S11316E00180F281E02D0280F381E02D1296FC93BB
S11316F0EE9311974C52594FE417F50729F44281A0
S11317005381FD0152834183FC01EE0FFF1FEE0F55
S1131710FF1FEE0FFF1F8E0F9F1FFC01EF52F94FAB
S11317200180F281E02D868197819093F606809363
S1131730F5062093A4060895CF93DF93EB016091FF
S1131740F5067091F606645F7F4F0E94030261E024
S1131750CE010E947408DF91CF910895CF93DF9357
S1131760DC011596ED91FC9116970680F781E02D2A
S1131770A489B589C685D785808991899D838C8301
S1131780C089D189868597859B838A8311968D919B
S11317909C9112979F01245F3F4F8217930731F466
S11317A08089918912969C938E931197158A148A35
S11317B08C9181508C9380919906811160C0A2858F
S11317C0B385C481D581868197819D838C83C681AD
S11317D0D781848195819B838A8311968D919C9175
S11317E012979F012E5F3F4F8217930731F4868132
S11317F0978112969C938E931197138612868C91DF
S113180081508C9386899091A406981710F4809344
S1131810A40690E0DC01AA0FBB1FAA0FBB1FAA0FEE
S1131820BB1F8A0F9B1FDC01AF52B94F11960D905D
S1131830BC91A02DB583A48314968D919C9115978A
S1131840978386831496CD91DC9115973B832A83E5
S113185015963C932E931497A689B0E0CD01880F7A
S1131860991F880F991F880F991FA80FB91FAF528E
S1131870B94FB387A2878C918F5F8C931CC042EBC6
S113188056E0DA011196CD91DC911297D787C6877D
S11318908C819D81918B808B8C819D81DC01139641
S11318A03C932E9312973D832C83558B448BDA0102
S11318B08C918F5F8C939689E091F506F091F606F2
S11318C08689891720F481E08093A00601C080E016
S11318D0DF91CF91089520919F06FC0120832091F0
S11318E0A5063091A606328321830895CF93DF9312
S11318F00FB6F8940F924091A5065091A606EC01FC
S113190029813A81DA01A21BB30BF881E0919F0689
S1131910FE1741F04217530728F0FB011182108291
S113192081E011C0EB0128813981A217B30740F48B
S11319302A1B3B0B398328830E946B0C80E003C075
S11319401982188281E00F900FBEDF91CF91089524
S113195081E08093A0060895AA1BBB1B51E107C038
S1131960AA1FBB1FA617B70710F0A61BB70B881F2B
S1131970991F5A95A9F780959095BC01CD010895BA
S1131980FB01DC0102C001900D9241505040D8F798
S10919900895F894FFCF56
S1131996DB05033B003800350032005441534B202D
S11319A631206973204F6E20005441534B2032205E
S11319B66973204F6E20005441534B2033206973C2
S11319C6204F6E20004C43445F31004C43445F3249
S10F19D6004C43445F330049444C45007E
S9030000FC
